{
  "_format": "hh3-artifact-1",
  "contractName": "IWSToken",
  "sourceName": "contracts/study/IWSToken.sol",
  "abi": [
    {
      "inputs": [],
      "stateMutability": "nonpayable",
      "type": "constructor"
    },
    {
      "anonymous": false,
      "inputs": [
        {
          "indexed": false,
          "internalType": "address",
          "name": "previousAdmin",
          "type": "address"
        },
        {
          "indexed": false,
          "internalType": "address",
          "name": "newAdmin",
          "type": "address"
        }
      ],
      "name": "AdminChanged",
      "type": "event"
    },
    {
      "anonymous": false,
      "inputs": [
        {
          "indexed": true,
          "internalType": "address",
          "name": "owner",
          "type": "address"
        },
        {
          "indexed": true,
          "internalType": "address",
          "name": "spender",
          "type": "address"
        },
        {
          "indexed": false,
          "internalType": "uint256",
          "name": "value",
          "type": "uint256"
        }
      ],
      "name": "Approval",
      "type": "event"
    },
    {
      "anonymous": false,
      "inputs": [
        {
          "indexed": true,
          "internalType": "address",
          "name": "beacon",
          "type": "address"
        }
      ],
      "name": "BeaconUpgraded",
      "type": "event"
    },
    {
      "anonymous": false,
      "inputs": [
        {
          "indexed": false,
          "internalType": "uint8",
          "name": "version",
          "type": "uint8"
        }
      ],
      "name": "Initialized",
      "type": "event"
    },
    {
      "anonymous": false,
      "inputs": [
        {
          "indexed": true,
          "internalType": "address",
          "name": "previousOwner",
          "type": "address"
        },
        {
          "indexed": true,
          "internalType": "address",
          "name": "newOwner",
          "type": "address"
        }
      ],
      "name": "OwnershipTransferred",
      "type": "event"
    },
    {
      "anonymous": false,
      "inputs": [
        {
          "indexed": false,
          "internalType": "address",
          "name": "account",
          "type": "address"
        }
      ],
      "name": "Paused",
      "type": "event"
    },
    {
      "anonymous": false,
      "inputs": [
        {
          "indexed": true,
          "internalType": "address",
          "name": "from",
          "type": "address"
        },
        {
          "indexed": true,
          "internalType": "address",
          "name": "to",
          "type": "address"
        },
        {
          "indexed": false,
          "internalType": "uint256",
          "name": "value",
          "type": "uint256"
        }
      ],
      "name": "Transfer",
      "type": "event"
    },
    {
      "anonymous": false,
      "inputs": [
        {
          "indexed": false,
          "internalType": "address",
          "name": "account",
          "type": "address"
        }
      ],
      "name": "Unpaused",
      "type": "event"
    },
    {
      "anonymous": false,
      "inputs": [
        {
          "indexed": true,
          "internalType": "address",
          "name": "implementation",
          "type": "address"
        }
      ],
      "name": "Upgraded",
      "type": "event"
    },
    {
      "stateMutability": "payable",
      "type": "fallback"
    },
    {
      "inputs": [
        {
          "internalType": "address",
          "name": "account",
          "type": "address"
        }
      ],
      "name": "addToBlacklist",
      "outputs": [],
      "stateMutability": "nonpayable",
      "type": "function"
    },
    {
      "inputs": [
        {
          "internalType": "address",
          "name": "owner",
          "type": "address"
        },
        {
          "internalType": "address",
          "name": "spender",
          "type": "address"
        }
      ],
      "name": "allowance",
      "outputs": [
        {
          "internalType": "uint256",
          "name": "",
          "type": "uint256"
        }
      ],
      "stateMutability": "view",
      "type": "function"
    },
    {
      "inputs": [
        {
          "internalType": "address",
          "name": "spender",
          "type": "address"
        },
        {
          "internalType": "uint256",
          "name": "amount",
          "type": "uint256"
        }
      ],
      "name": "approve",
      "outputs": [
        {
          "internalType": "bool",
          "name": "",
          "type": "bool"
        }
      ],
      "stateMutability": "nonpayable",
      "type": "function"
    },
    {
      "inputs": [
        {
          "internalType": "address",
          "name": "account",
          "type": "address"
        }
      ],
      "name": "balanceOf",
      "outputs": [
        {
          "internalType": "uint256",
          "name": "",
          "type": "uint256"
        }
      ],
      "stateMutability": "view",
      "type": "function"
    },
    {
      "inputs": [
        {
          "internalType": "address[]",
          "name": "recipients",
          "type": "address[]"
        },
        {
          "internalType": "uint256[]",
          "name": "amounts",
          "type": "uint256[]"
        }
      ],
      "name": "batchTransfer",
      "outputs": [],
      "stateMutability": "nonpayable",
      "type": "function"
    },
    {
      "inputs": [
        {
          "internalType": "uint256",
          "name": "amount",
          "type": "uint256"
        }
      ],
      "name": "burn",
      "outputs": [],
      "stateMutability": "nonpayable",
      "type": "function"
    },
    {
      "inputs": [],
      "name": "decimals",
      "outputs": [
        {
          "internalType": "uint8",
          "name": "",
          "type": "uint8"
        }
      ],
      "stateMutability": "view",
      "type": "function"
    },
    {
      "inputs": [
        {
          "internalType": "address",
          "name": "spender",
          "type": "address"
        },
        {
          "internalType": "uint256",
          "name": "subtractedValue",
          "type": "uint256"
        }
      ],
      "name": "decreaseAllowance",
      "outputs": [
        {
          "internalType": "bool",
          "name": "",
          "type": "bool"
        }
      ],
      "stateMutability": "nonpayable",
      "type": "function"
    },
    {
      "inputs": [
        {
          "internalType": "address",
          "name": "spender",
          "type": "address"
        },
        {
          "internalType": "uint256",
          "name": "addedValue",
          "type": "uint256"
        }
      ],
      "name": "increaseAllowance",
      "outputs": [
        {
          "internalType": "bool",
          "name": "",
          "type": "bool"
        }
      ],
      "stateMutability": "nonpayable",
      "type": "function"
    },
    {
      "inputs": [
        {
          "internalType": "string",
          "name": "name_",
          "type": "string"
        },
        {
          "internalType": "string",
          "name": "symbol_",
          "type": "string"
        },
        {
          "internalType": "uint8",
          "name": "decimals_",
          "type": "uint8"
        },
        {
          "internalType": "uint256",
          "name": "initialSupply_",
          "type": "uint256"
        },
        {
          "internalType": "address",
          "name": "initialHolder_",
          "type": "address"
        }
      ],
      "name": "initialize",
      "outputs": [],
      "stateMutability": "nonpayable",
      "type": "function"
    },
    {
      "inputs": [
        {
          "internalType": "address",
          "name": "account",
          "type": "address"
        }
      ],
      "name": "isBlacklisted",
      "outputs": [
        {
          "internalType": "bool",
          "name": "",
          "type": "bool"
        }
      ],
      "stateMutability": "view",
      "type": "function"
    },
    {
      "inputs": [
        {
          "internalType": "address",
          "name": "to",
          "type": "address"
        },
        {
          "internalType": "uint256",
          "name": "amount",
          "type": "uint256"
        }
      ],
      "name": "mint",
      "outputs": [],
      "stateMutability": "nonpayable",
      "type": "function"
    },
    {
      "inputs": [],
      "name": "name",
      "outputs": [
        {
          "internalType": "string",
          "name": "",
          "type": "string"
        }
      ],
      "stateMutability": "view",
      "type": "function"
    },
    {
      "inputs": [],
      "name": "owner",
      "outputs": [
        {
          "internalType": "address",
          "name": "",
          "type": "address"
        }
      ],
      "stateMutability": "view",
      "type": "function"
    },
    {
      "inputs": [],
      "name": "pause",
      "outputs": [],
      "stateMutability": "nonpayable",
      "type": "function"
    },
    {
      "inputs": [],
      "name": "paused",
      "outputs": [
        {
          "internalType": "bool",
          "name": "",
          "type": "bool"
        }
      ],
      "stateMutability": "view",
      "type": "function"
    },
    {
      "inputs": [],
      "name": "proxiableUUID",
      "outputs": [
        {
          "internalType": "bytes32",
          "name": "",
          "type": "bytes32"
        }
      ],
      "stateMutability": "view",
      "type": "function"
    },
    {
      "inputs": [
        {
          "internalType": "address",
          "name": "account",
          "type": "address"
        }
      ],
      "name": "removeFromBlacklist",
      "outputs": [],
      "stateMutability": "nonpayable",
      "type": "function"
    },
    {
      "inputs": [],
      "name": "renounceOwnership",
      "outputs": [],
      "stateMutability": "nonpayable",
      "type": "function"
    },
    {
      "inputs": [],
      "name": "symbol",
      "outputs": [
        {
          "internalType": "string",
          "name": "",
          "type": "string"
        }
      ],
      "stateMutability": "view",
      "type": "function"
    },
    {
      "inputs": [],
      "name": "totalSupply",
      "outputs": [
        {
          "internalType": "uint256",
          "name": "",
          "type": "uint256"
        }
      ],
      "stateMutability": "view",
      "type": "function"
    },
    {
      "inputs": [
        {
          "internalType": "address",
          "name": "to",
          "type": "address"
        },
        {
          "internalType": "uint256",
          "name": "amount",
          "type": "uint256"
        }
      ],
      "name": "transfer",
      "outputs": [
        {
          "internalType": "bool",
          "name": "",
          "type": "bool"
        }
      ],
      "stateMutability": "nonpayable",
      "type": "function"
    },
    {
      "inputs": [
        {
          "internalType": "address",
          "name": "from",
          "type": "address"
        },
        {
          "internalType": "address",
          "name": "to",
          "type": "address"
        },
        {
          "internalType": "uint256",
          "name": "amount",
          "type": "uint256"
        }
      ],
      "name": "transferFrom",
      "outputs": [
        {
          "internalType": "bool",
          "name": "",
          "type": "bool"
        }
      ],
      "stateMutability": "nonpayable",
      "type": "function"
    },
    {
      "inputs": [
        {
          "internalType": "address",
          "name": "newOwner",
          "type": "address"
        }
      ],
      "name": "transferOwnership",
      "outputs": [],
      "stateMutability": "nonpayable",
      "type": "function"
    },
    {
      "inputs": [],
      "name": "unpause",
      "outputs": [],
      "stateMutability": "nonpayable",
      "type": "function"
    },
    {
      "inputs": [
        {
          "internalType": "address",
          "name": "newImplementation",
          "type": "address"
        }
      ],
      "name": "upgradeTo",
      "outputs": [],
      "stateMutability": "nonpayable",
      "type": "function"
    },
    {
      "inputs": [
        {
          "internalType": "address",
          "name": "newImplementation",
          "type": "address"
        },
        {
          "internalType": "bytes",
          "name": "data",
          "type": "bytes"
        }
      ],
      "name": "upgradeToAndCall",
      "outputs": [],
      "stateMutability": "payable",
      "type": "function"
    },
    {
      "inputs": [
        {
          "internalType": "address payable",
          "name": "to",
          "type": "address"
        }
      ],
      "name": "withdrawETH",
      "outputs": [],
      "stateMutability": "nonpayable",
      "type": "function"
    },
    {
      "stateMutability": "payable",
      "type": "receive"
    }
  ],
  "bytecode": "0x60a060405230608052348015610013575f5ffd5b5061001c610021565b6100dd565b5f54610100900460ff161561008c5760405162461bcd60e51b815260206004820152602760248201527f496e697469616c697a61626c653a20636f6e747261637420697320696e697469604482015266616c697a696e6760c81b606482015260840160405180910390fd5b5f5460ff908116146100db575f805460ff191660ff9081179091556040519081527f7f26b83ff96e1f2b6a682f133852f6798a09c465da95921460cefb38474024989060200160405180910390a15b565b608051611fe76101115f395f81816105e50152818161062e0152818161074a0152818161078a01526108170152611fe75ff3fe6080604052600436106101a1575f3560e01c80635c975abb116100df57806395d89b4111610083578063dd62ed3e11610060578063dd62ed3e1461047a578063f2fde38b14610499578063f3571819146104b8578063fe575a87146104d757005b806395d89b4114610428578063a457c2d71461043c578063a9059cbb1461045b57005b8063715018a6116100bc578063715018a6146103ba5780638456cb59146103ce57806388d695b2146103e25780638da5cb5b1461040157005b80635c975abb14610350578063690d83201461036757806370a082311461038657005b80633f4ba83a1161014657806344337ea11161012357806344337ea1146102eb5780634f1ef2861461030a57806352d1902d1461031d578063537df3b61461033157005b80633f4ba83a1461029957806340c10f19146102ad57806342966c68146102cc57005b806323b872dd1161017f57806323b872dd1461021a578063313ce567146102395780633659cfe61461025b578063395093511461027a57005b806306fdde03146101a3578063095ea7b3146101cd57806318160ddd146101fc575b005b3480156101ae575f5ffd5b506101b761050f565b6040516101c49190611980565b60405180910390f35b3480156101d8575f5ffd5b506101ec6101e73660046119c9565b61059f565b60405190151581526020016101c4565b348015610207575f5ffd5b506035545b6040519081526020016101c4565b348015610225575f5ffd5b506101ec6102343660046119f3565b6105b8565b348015610244575f5ffd5b5061012d5460405160ff90911681526020016101c4565b348015610266575f5ffd5b506101a1610275366004611a31565b6105db565b348015610285575f5ffd5b506101ec6102943660046119c9565b6106c1565b3480156102a4575f5ffd5b506101a16106e2565b3480156102b8575f5ffd5b506101a16102c73660046119c9565b6106f4565b3480156102d7575f5ffd5b506101a16102e6366004611a4c565b61070a565b3480156102f6575f5ffd5b506101a1610305366004611a31565b610714565b6101a1610318366004611aee565b610740565b348015610328575f5ffd5b5061020c61080b565b34801561033c575f5ffd5b506101a161034b366004611a31565b6108bc565b34801561035b575f5ffd5b5060975460ff166101ec565b348015610372575f5ffd5b506101a1610381366004611a31565b6108e5565b348015610391575f5ffd5b5061020c6103a0366004611a31565b6001600160a01b03165f9081526033602052604090205490565b3480156103c5575f5ffd5b506101a1610964565b3480156103d9575f5ffd5b506101a1610975565b3480156103ed575f5ffd5b506101a16103fc366004611b96565b610985565b34801561040c575f5ffd5b506065546040516001600160a01b0390911681526020016101c4565b348015610433575f5ffd5b506101b7610a37565b348015610447575f5ffd5b506101ec6104563660046119c9565b610a46565b348015610466575f5ffd5b506101ec6104753660046119c9565b610ac0565b348015610485575f5ffd5b5061020c610494366004611c02565b610acd565b3480156104a4575f5ffd5b506101a16104b3366004611a31565b610af7565b3480156104c3575f5ffd5b506101a16104d2366004611c57565b610b6d565b3480156104e2575f5ffd5b506101ec6104f1366004611a31565b6001600160a01b03165f90815261012e602052604090205460ff1690565b60606036805461051e90611cf0565b80601f016020809104026020016040519081016040528092919081815260200182805461054a90611cf0565b80156105955780601f1061056c57610100808354040283529160200191610595565b820191905f5260205f20905b81548152906001019060200180831161057857829003601f168201915b5050505050905090565b5f336105ac818585610ccd565b60019150505b92915050565b5f336105c5858285610df0565b6105d0858585610e68565b506001949350505050565b6001600160a01b037f000000000000000000000000000000000000000000000000000000000000000016300361062c5760405162461bcd60e51b815260040161062390611d28565b60405180910390fd5b7f00000000000000000000000000000000000000000000000000000000000000006001600160a01b03166106745f516020611f6b5f395f51905f52546001600160a01b031690565b6001600160a01b03161461069a5760405162461bcd60e51b815260040161062390611d74565b6106a38161101c565b604080515f808252602082019092526106be91839190611024565b50565b5f336105ac8185856106d38383610acd565b6106dd9190611dc0565b610ccd565b6106ea61118e565b6106f26111e8565b565b6106fc61118e565b610706828261123a565b5050565b6106be3382611304565b61071c61118e565b6001600160a01b03165f90815261012e60205260409020805460ff19166001179055565b6001600160a01b037f00000000000000000000000000000000000000000000000000000000000000001630036107885760405162461bcd60e51b815260040161062390611d28565b7f00000000000000000000000000000000000000000000000000000000000000006001600160a01b03166107d05f516020611f6b5f395f51905f52546001600160a01b031690565b6001600160a01b0316146107f65760405162461bcd60e51b815260040161062390611d74565b6107ff8261101c565b61070682826001611024565b5f306001600160a01b037f000000000000000000000000000000000000000000000000000000000000000016146108aa5760405162461bcd60e51b815260206004820152603860248201527f555550535570677261646561626c653a206d757374206e6f742062652063616c60448201527f6c6564207468726f7567682064656c656761746563616c6c00000000000000006064820152608401610623565b505f516020611f6b5f395f51905f5290565b6108c461118e565b6001600160a01b03165f90815261012e60205260409020805460ff19169055565b6108ed61118e565b478061092c5760405162461bcd60e51b815260206004820152600e60248201526d4e6f204554482062616c616e636560901b6044820152606401610623565b6040516001600160a01b0383169082156108fc029083905f818181858888f1935050505015801561095f573d5f5f3e3d5ffd5b505050565b61096c61118e565b6106f25f611441565b61097d61118e565b6106f2611492565b61098d6114cf565b8281146109d55760405162461bcd60e51b8152602060048201526016602482015275082e4e4c2f2e640d8cadccee8d040dad2e6dac2e8c6d60531b6044820152606401610623565b5f5b83811015610a3057610a278585838181106109f4576109f4611ddf565b9050602002016020810190610a099190611a31565b848484818110610a1b57610a1b611ddf565b90506020020135610ac0565b506001016109d7565b5050505050565b60606037805461051e90611cf0565b5f3381610a538286610acd565b905083811015610ab35760405162461bcd60e51b815260206004820152602560248201527f45524332303a2064656372656173656420616c6c6f77616e63652062656c6f77604482015264207a65726f60d81b6064820152608401610623565b6105d08286868403610ccd565b5f336105ac818585610e68565b6001600160a01b039182165f90815260346020908152604080832093909416825291909152205490565b610aff61118e565b6001600160a01b038116610b645760405162461bcd60e51b815260206004820152602660248201527f4f776e61626c653a206e6577206f776e657220697320746865207a65726f206160448201526564647265737360d01b6064820152608401610623565b6106be81611441565b5f54610100900460ff1615808015610b8b57505f54600160ff909116105b80610ba45750303b158015610ba457505f5460ff166001145b610c075760405162461bcd60e51b815260206004820152602e60248201527f496e697469616c697a61626c653a20636f6e747261637420697320616c72656160448201526d191e481a5b9a5d1a585b1a5e995960921b6064820152608401610623565b5f805460ff191660011790558015610c28575f805461ff0019166101001790555b610c328686611515565b610c3a611545565b610c42611573565b610c4a6115a1565b61012d805460ff191660ff86161790558215801590610c7157506001600160a01b03821615155b15610c8057610c80828461123a565b8015610cc5575f805461ff0019169055604051600181527f7f26b83ff96e1f2b6a682f133852f6798a09c465da95921460cefb38474024989060200160405180910390a15b505050505050565b6001600160a01b038316610d2f5760405162461bcd60e51b8152602060048201526024808201527f45524332303a20617070726f76652066726f6d20746865207a65726f206164646044820152637265737360e01b6064820152608401610623565b6001600160a01b038216610d905760405162461bcd60e51b815260206004820152602260248201527f45524332303a20617070726f766520746f20746865207a65726f206164647265604482015261737360f01b6064820152608401610623565b6001600160a01b038381165f8181526034602090815260408083209487168084529482529182902085905590518481527f8c5be1e5ebec7d5bd14f71427d1e84f3dd0314c0f7b2291e5b200ac8c7c3b925910160405180910390a3505050565b5f610dfb8484610acd565b90505f198114610e625781811015610e555760405162461bcd60e51b815260206004820152601d60248201527f45524332303a20696e73756666696369656e7420616c6c6f77616e63650000006044820152606401610623565b610e628484848403610ccd565b50505050565b6001600160a01b038316610ecc5760405162461bcd60e51b815260206004820152602560248201527f45524332303a207472616e736665722066726f6d20746865207a65726f206164604482015264647265737360d81b6064820152608401610623565b6001600160a01b038216610f2e5760405162461bcd60e51b815260206004820152602360248201527f45524332303a207472616e7366657220746f20746865207a65726f206164647260448201526265737360e81b6064820152608401610623565b610f398383836115c7565b6001600160a01b0383165f9081526033602052604090205481811015610fb05760405162461bcd60e51b815260206004820152602660248201527f45524332303a207472616e7366657220616d6f756e7420657863656564732062604482015265616c616e636560d01b6064820152608401610623565b6001600160a01b038085165f8181526033602052604080822086860390559286168082529083902080548601905591517fddf252ad1be2c89b69c2b068fc378daa952ba7f163c4a11628f55a4df523b3ef9061100f9086815260200190565b60405180910390a3610e62565b6106be61118e565b7f4910fdfa16fed3260ed0e7147f7cc6da11a60208b5b9406d12a635614ffd91435460ff16156110575761095f83611653565b826001600160a01b03166352d1902d6040518163ffffffff1660e01b8152600401602060405180830381865afa9250505080156110b1575060408051601f3d908101601f191682019092526110ae91810190611df3565b60015b6111145760405162461bcd60e51b815260206004820152602e60248201527f45524331393637557067726164653a206e657720696d706c656d656e7461746960448201526d6f6e206973206e6f74205555505360901b6064820152608401610623565b5f516020611f6b5f395f51905f5281146111825760405162461bcd60e51b815260206004820152602960248201527f45524331393637557067726164653a20756e737570706f727465642070726f786044820152681a58589b195555525160ba1b6064820152608401610623565b5061095f8383836116ee565b6065546001600160a01b031633146106f25760405162461bcd60e51b815260206004820181905260248201527f4f776e61626c653a2063616c6c6572206973206e6f7420746865206f776e65726044820152606401610623565b6111f0611712565b6097805460ff191690557f5db9ee0a495bf2e6ff9c91a7834c1ba4fdd244a5e8aa4e537bd38aeae4b073aa335b6040516001600160a01b03909116815260200160405180910390a1565b6001600160a01b0382166112905760405162461bcd60e51b815260206004820152601f60248201527f45524332303a206d696e7420746f20746865207a65726f2061646472657373006044820152606401610623565b61129b5f83836115c7565b8060355f8282546112ac9190611dc0565b90915550506001600160a01b0382165f818152603360209081526040808320805486019055518481527fddf252ad1be2c89b69c2b068fc378daa952ba7f163c4a11628f55a4df523b3ef910160405180910390a35050565b6001600160a01b0382166113645760405162461bcd60e51b815260206004820152602160248201527f45524332303a206275726e2066726f6d20746865207a65726f206164647265736044820152607360f81b6064820152608401610623565b61136f825f836115c7565b6001600160a01b0382165f90815260336020526040902054818110156113e25760405162461bcd60e51b815260206004820152602260248201527f45524332303a206275726e20616d6f756e7420657863656564732062616c616e604482015261636560f01b6064820152608401610623565b6001600160a01b0383165f8181526033602090815260408083208686039055603580548790039055518581529192917fddf252ad1be2c89b69c2b068fc378daa952ba7f163c4a11628f55a4df523b3ef910160405180910390a3505050565b606580546001600160a01b038381166001600160a01b0319831681179093556040519116919082907f8be0079c531659141344cd1fd0a4f28419497f9722a3daafe3b4186f6b6457e0905f90a35050565b61149a6114cf565b6097805460ff191660011790557f62e78cea01bee320cd4e420270b5ea74000d11b0c9f74754ebdbfc544b05a25861121d3390565b60975460ff16156106f25760405162461bcd60e51b815260206004820152601060248201526f14185d5cd8589b194e881c185d5cd95960821b6044820152606401610623565b5f54610100900460ff1661153b5760405162461bcd60e51b815260040161062390611e0a565b610706828261175b565b5f54610100900460ff1661156b5760405162461bcd60e51b815260040161062390611e0a565b6106f261179a565b5f54610100900460ff166115995760405162461bcd60e51b815260040161062390611e0a565b6106f26117c9565b5f54610100900460ff166106f25760405162461bcd60e51b815260040161062390611e0a565b6115cf6114cf565b6001600160a01b0383165f90815261012e602052604090205460ff1615801561161157506001600160a01b0382165f90815261012e602052604090205460ff16155b61095f5760405162461bcd60e51b8152602060048201526013602482015272426c61636b6c6973746564206164647265737360681b6044820152606401610623565b6001600160a01b0381163b6116c05760405162461bcd60e51b815260206004820152602d60248201527f455243313936373a206e657720696d706c656d656e746174696f6e206973206e60448201526c1bdd08184818dbdb9d1c9858dd609a1b6064820152608401610623565b5f516020611f6b5f395f51905f5280546001600160a01b0319166001600160a01b0392909216919091179055565b6116f7836117fb565b5f825111806117035750805b1561095f57610e62838361183a565b60975460ff166106f25760405162461bcd60e51b815260206004820152601460248201527314185d5cd8589b194e881b9bdd081c185d5cd95960621b6044820152606401610623565b5f54610100900460ff166117815760405162461bcd60e51b815260040161062390611e0a565b603661178d8382611e99565b50603761095f8282611e99565b5f54610100900460ff166117c05760405162461bcd60e51b815260040161062390611e0a565b6106f233611441565b5f54610100900460ff166117ef5760405162461bcd60e51b815260040161062390611e0a565b6097805460ff19169055565b61180481611653565b6040516001600160a01b038216907fbc7cd75a20ee27fd9adebab32041f755214dbc6bffa90cc0225b39da2e5c2d3b905f90a250565b606061185f8383604051806060016040528060278152602001611f8b60279139611866565b9392505050565b60605f5f856001600160a01b0316856040516118829190611f54565b5f60405180830381855af49150503d805f81146118ba576040519150601f19603f3d011682016040523d82523d5f602084013e6118bf565b606091505b50915091506118d0868383876118da565b9695505050505050565b606083156119485782515f03611941576001600160a01b0385163b6119415760405162461bcd60e51b815260206004820152601d60248201527f416464726573733a2063616c6c20746f206e6f6e2d636f6e74726163740000006044820152606401610623565b5081611952565b611952838361195a565b949350505050565b81511561196a5781518083602001fd5b8060405162461bcd60e51b815260040161062391905b602081525f82518060208401528060208501604085015e5f604082850101526040601f19601f83011684010191505092915050565b6001600160a01b03811681146106be575f5ffd5b5f5f604083850312156119da575f5ffd5b82356119e5816119b5565b946020939093013593505050565b5f5f5f60608486031215611a05575f5ffd5b8335611a10816119b5565b92506020840135611a20816119b5565b929592945050506040919091013590565b5f60208284031215611a41575f5ffd5b813561185f816119b5565b5f60208284031215611a5c575f5ffd5b5035919050565b634e487b7160e01b5f52604160045260245ffd5b5f5f67ffffffffffffffff841115611a9157611a91611a63565b50604051601f19601f85018116603f0116810181811067ffffffffffffffff82111715611ac057611ac0611a63565b604052838152905080828401851015611ad7575f5ffd5b838360208301375f60208583010152509392505050565b5f5f60408385031215611aff575f5ffd5b8235611b0a816119b5565b9150602083013567ffffffffffffffff811115611b25575f5ffd5b8301601f81018513611b35575f5ffd5b611b4485823560208401611a77565b9150509250929050565b5f5f83601f840112611b5e575f5ffd5b50813567ffffffffffffffff811115611b75575f5ffd5b6020830191508360208260051b8501011115611b8f575f5ffd5b9250929050565b5f5f5f5f60408587031215611ba9575f5ffd5b843567ffffffffffffffff811115611bbf575f5ffd5b611bcb87828801611b4e565b909550935050602085013567ffffffffffffffff811115611bea575f5ffd5b611bf687828801611b4e565b95989497509550505050565b5f5f60408385031215611c13575f5ffd5b8235611c1e816119b5565b91506020830135611c2e816119b5565b809150509250929050565b5f82601f830112611c48575f5ffd5b61185f83833560208501611a77565b5f5f5f5f5f60a08688031215611c6b575f5ffd5b853567ffffffffffffffff811115611c81575f5ffd5b611c8d88828901611c39565b955050602086013567ffffffffffffffff811115611ca9575f5ffd5b611cb588828901611c39565b945050604086013560ff81168114611ccb575f5ffd5b9250606086013591506080860135611ce2816119b5565b809150509295509295909350565b600181811c90821680611d0457607f821691505b602082108103611d2257634e487b7160e01b5f52602260045260245ffd5b50919050565b6020808252602c908201527f46756e6374696f6e206d7573742062652063616c6c6564207468726f7567682060408201526b19195b1959d85d1958d85b1b60a21b606082015260800190565b6020808252602c908201527f46756e6374696f6e206d7573742062652063616c6c6564207468726f7567682060408201526b6163746976652070726f787960a01b606082015260800190565b808201808211156105b257634e487b7160e01b5f52601160045260245ffd5b634e487b7160e01b5f52603260045260245ffd5b5f60208284031215611e03575f5ffd5b5051919050565b6020808252602b908201527f496e697469616c697a61626c653a20636f6e7472616374206973206e6f74206960408201526a6e697469616c697a696e6760a81b606082015260800190565b601f82111561095f57805f5260205f20601f840160051c81016020851015611e7a5750805b601f840160051c820191505b81811015610a30575f8155600101611e86565b815167ffffffffffffffff811115611eb357611eb3611a63565b611ec781611ec18454611cf0565b84611e55565b6020601f821160018114611ef9575f8315611ee25750848201515b5f19600385901b1c1916600184901b178455610a30565b5f84815260208120601f198516915b82811015611f285787850151825560209485019460019092019101611f08565b5084821015611f4557868401515f19600387901b60f8161c191681555b50505050600190811b01905550565b5f82518060208501845e5f92019182525091905056fe360894a13ba1a3210667c828492db98dca3e2076cc3735a920a3ca505d382bbc416464726573733a206c6f772d6c6576656c2064656c65676174652063616c6c206661696c6564a26469706673582212201767850e57a7a77972b7931cb419eace180b440a0b29d786ce052f22f9d12bad64736f6c634300081c0033",
  "linkReferences": {},
  "deployedLinkReferences": {},
  "immutableReferences": {
    "687": [
      {
        "length": 32,
        "start": 1509
      },
      {
        "length": 32,
        "start": 1582
      },
      {
        "length": 32,
        "start": 1866
      },
      {
        "length": 32,
        "start": 1930
      },
      {
        "length": 32,
        "start": 2071
      }
    ]
  },
  "inputSourceName": "project/contracts/study/IWSToken.sol",
  "buildInfoId": "solc-0_8_28-876ef3a38a9f0e7972adf9e8134e1db7779efd53"
}