{
  "_format": "hh3-artifact-1",
  "contractName": "NFTERC721",
  "sourceName": "contracts/jobThree/NFTERC721.sol",
  "abi": [
    {
      "inputs": [],
      "stateMutability": "nonpayable",
      "type": "constructor"
    },
    {
      "anonymous": false,
      "inputs": [
        {
          "indexed": false,
          "internalType": "address",
          "name": "previousAdmin",
          "type": "address"
        },
        {
          "indexed": false,
          "internalType": "address",
          "name": "newAdmin",
          "type": "address"
        }
      ],
      "name": "AdminChanged",
      "type": "event"
    },
    {
      "anonymous": false,
      "inputs": [
        {
          "indexed": true,
          "internalType": "address",
          "name": "owner",
          "type": "address"
        },
        {
          "indexed": true,
          "internalType": "address",
          "name": "approved",
          "type": "address"
        },
        {
          "indexed": true,
          "internalType": "uint256",
          "name": "tokenId",
          "type": "uint256"
        }
      ],
      "name": "Approval",
      "type": "event"
    },
    {
      "anonymous": false,
      "inputs": [
        {
          "indexed": true,
          "internalType": "address",
          "name": "owner",
          "type": "address"
        },
        {
          "indexed": true,
          "internalType": "address",
          "name": "operator",
          "type": "address"
        },
        {
          "indexed": false,
          "internalType": "bool",
          "name": "approved",
          "type": "bool"
        }
      ],
      "name": "ApprovalForAll",
      "type": "event"
    },
    {
      "anonymous": false,
      "inputs": [
        {
          "indexed": false,
          "internalType": "string",
          "name": "newBaseURI",
          "type": "string"
        }
      ],
      "name": "BaseURIUpdated",
      "type": "event"
    },
    {
      "anonymous": false,
      "inputs": [
        {
          "indexed": true,
          "internalType": "address",
          "name": "beacon",
          "type": "address"
        }
      ],
      "name": "BeaconUpgraded",
      "type": "event"
    },
    {
      "anonymous": false,
      "inputs": [
        {
          "indexed": false,
          "internalType": "uint8",
          "name": "version",
          "type": "uint8"
        }
      ],
      "name": "Initialized",
      "type": "event"
    },
    {
      "anonymous": false,
      "inputs": [
        {
          "indexed": true,
          "internalType": "address",
          "name": "previousOwner",
          "type": "address"
        },
        {
          "indexed": true,
          "internalType": "address",
          "name": "newOwner",
          "type": "address"
        }
      ],
      "name": "OwnershipTransferred",
      "type": "event"
    },
    {
      "anonymous": false,
      "inputs": [
        {
          "indexed": true,
          "internalType": "address",
          "name": "to",
          "type": "address"
        },
        {
          "indexed": true,
          "internalType": "uint256",
          "name": "tokenId",
          "type": "uint256"
        }
      ],
      "name": "TokenMinted",
      "type": "event"
    },
    {
      "anonymous": false,
      "inputs": [
        {
          "indexed": true,
          "internalType": "address",
          "name": "from",
          "type": "address"
        },
        {
          "indexed": true,
          "internalType": "address",
          "name": "to",
          "type": "address"
        },
        {
          "indexed": true,
          "internalType": "uint256",
          "name": "tokenId",
          "type": "uint256"
        }
      ],
      "name": "Transfer",
      "type": "event"
    },
    {
      "anonymous": false,
      "inputs": [
        {
          "indexed": true,
          "internalType": "address",
          "name": "implementation",
          "type": "address"
        }
      ],
      "name": "Upgraded",
      "type": "event"
    },
    {
      "inputs": [
        {
          "internalType": "address",
          "name": "to",
          "type": "address"
        },
        {
          "internalType": "uint256",
          "name": "tokenId",
          "type": "uint256"
        }
      ],
      "name": "approve",
      "outputs": [],
      "stateMutability": "nonpayable",
      "type": "function"
    },
    {
      "inputs": [
        {
          "internalType": "address",
          "name": "owner",
          "type": "address"
        }
      ],
      "name": "balanceOf",
      "outputs": [
        {
          "internalType": "uint256",
          "name": "",
          "type": "uint256"
        }
      ],
      "stateMutability": "view",
      "type": "function"
    },
    {
      "inputs": [
        {
          "internalType": "uint256",
          "name": "tokenId",
          "type": "uint256"
        }
      ],
      "name": "exists",
      "outputs": [
        {
          "internalType": "bool",
          "name": "",
          "type": "bool"
        }
      ],
      "stateMutability": "view",
      "type": "function"
    },
    {
      "inputs": [
        {
          "internalType": "uint256",
          "name": "tokenId",
          "type": "uint256"
        }
      ],
      "name": "getApproved",
      "outputs": [
        {
          "internalType": "address",
          "name": "",
          "type": "address"
        }
      ],
      "stateMutability": "view",
      "type": "function"
    },
    {
      "inputs": [],
      "name": "getNextTokenId",
      "outputs": [
        {
          "internalType": "string",
          "name": "",
          "type": "string"
        }
      ],
      "stateMutability": "pure",
      "type": "function"
    },
    {
      "inputs": [],
      "name": "getVersion",
      "outputs": [
        {
          "internalType": "string",
          "name": "",
          "type": "string"
        }
      ],
      "stateMutability": "pure",
      "type": "function"
    },
    {
      "inputs": [
        {
          "internalType": "string",
          "name": "name",
          "type": "string"
        },
        {
          "internalType": "string",
          "name": "symbol",
          "type": "string"
        },
        {
          "internalType": "string",
          "name": "baseURI",
          "type": "string"
        }
      ],
      "name": "initialize",
      "outputs": [],
      "stateMutability": "nonpayable",
      "type": "function"
    },
    {
      "inputs": [
        {
          "internalType": "address",
          "name": "owner",
          "type": "address"
        },
        {
          "internalType": "address",
          "name": "operator",
          "type": "address"
        }
      ],
      "name": "isApprovedForAll",
      "outputs": [
        {
          "internalType": "bool",
          "name": "",
          "type": "bool"
        }
      ],
      "stateMutability": "view",
      "type": "function"
    },
    {
      "inputs": [
        {
          "internalType": "address",
          "name": "to",
          "type": "address"
        },
        {
          "internalType": "uint256",
          "name": "tokenId",
          "type": "uint256"
        }
      ],
      "name": "mint",
      "outputs": [],
      "stateMutability": "nonpayable",
      "type": "function"
    },
    {
      "inputs": [],
      "name": "name",
      "outputs": [
        {
          "internalType": "string",
          "name": "",
          "type": "string"
        }
      ],
      "stateMutability": "view",
      "type": "function"
    },
    {
      "inputs": [],
      "name": "owner",
      "outputs": [
        {
          "internalType": "address",
          "name": "",
          "type": "address"
        }
      ],
      "stateMutability": "view",
      "type": "function"
    },
    {
      "inputs": [
        {
          "internalType": "uint256",
          "name": "tokenId",
          "type": "uint256"
        }
      ],
      "name": "ownerOf",
      "outputs": [
        {
          "internalType": "address",
          "name": "",
          "type": "address"
        }
      ],
      "stateMutability": "view",
      "type": "function"
    },
    {
      "inputs": [],
      "name": "proxiableUUID",
      "outputs": [
        {
          "internalType": "bytes32",
          "name": "",
          "type": "bytes32"
        }
      ],
      "stateMutability": "view",
      "type": "function"
    },
    {
      "inputs": [],
      "name": "renounceOwnership",
      "outputs": [],
      "stateMutability": "nonpayable",
      "type": "function"
    },
    {
      "inputs": [
        {
          "internalType": "address",
          "name": "from",
          "type": "address"
        },
        {
          "internalType": "address",
          "name": "to",
          "type": "address"
        },
        {
          "internalType": "uint256",
          "name": "tokenId",
          "type": "uint256"
        }
      ],
      "name": "safeTransferFrom",
      "outputs": [],
      "stateMutability": "nonpayable",
      "type": "function"
    },
    {
      "inputs": [
        {
          "internalType": "address",
          "name": "from",
          "type": "address"
        },
        {
          "internalType": "address",
          "name": "to",
          "type": "address"
        },
        {
          "internalType": "uint256",
          "name": "tokenId",
          "type": "uint256"
        },
        {
          "internalType": "bytes",
          "name": "data",
          "type": "bytes"
        }
      ],
      "name": "safeTransferFrom",
      "outputs": [],
      "stateMutability": "nonpayable",
      "type": "function"
    },
    {
      "inputs": [
        {
          "internalType": "address",
          "name": "operator",
          "type": "address"
        },
        {
          "internalType": "bool",
          "name": "approved",
          "type": "bool"
        }
      ],
      "name": "setApprovalForAll",
      "outputs": [],
      "stateMutability": "nonpayable",
      "type": "function"
    },
    {
      "inputs": [
        {
          "internalType": "string",
          "name": "newBaseURI",
          "type": "string"
        }
      ],
      "name": "setBaseURI",
      "outputs": [],
      "stateMutability": "nonpayable",
      "type": "function"
    },
    {
      "inputs": [
        {
          "internalType": "bytes4",
          "name": "interfaceId",
          "type": "bytes4"
        }
      ],
      "name": "supportsInterface",
      "outputs": [
        {
          "internalType": "bool",
          "name": "",
          "type": "bool"
        }
      ],
      "stateMutability": "view",
      "type": "function"
    },
    {
      "inputs": [],
      "name": "symbol",
      "outputs": [
        {
          "internalType": "string",
          "name": "",
          "type": "string"
        }
      ],
      "stateMutability": "view",
      "type": "function"
    },
    {
      "inputs": [
        {
          "internalType": "uint256",
          "name": "tokenId",
          "type": "uint256"
        }
      ],
      "name": "tokenURI",
      "outputs": [
        {
          "internalType": "string",
          "name": "",
          "type": "string"
        }
      ],
      "stateMutability": "view",
      "type": "function"
    },
    {
      "inputs": [
        {
          "internalType": "address",
          "name": "from",
          "type": "address"
        },
        {
          "internalType": "address",
          "name": "to",
          "type": "address"
        },
        {
          "internalType": "uint256",
          "name": "tokenId",
          "type": "uint256"
        }
      ],
      "name": "transferFrom",
      "outputs": [],
      "stateMutability": "nonpayable",
      "type": "function"
    },
    {
      "inputs": [
        {
          "internalType": "address",
          "name": "newOwner",
          "type": "address"
        }
      ],
      "name": "transferOwnership",
      "outputs": [],
      "stateMutability": "nonpayable",
      "type": "function"
    },
    {
      "inputs": [
        {
          "internalType": "address",
          "name": "newImplementation",
          "type": "address"
        }
      ],
      "name": "upgradeTo",
      "outputs": [],
      "stateMutability": "nonpayable",
      "type": "function"
    },
    {
      "inputs": [
        {
          "internalType": "address",
          "name": "newImplementation",
          "type": "address"
        },
        {
          "internalType": "bytes",
          "name": "data",
          "type": "bytes"
        }
      ],
      "name": "upgradeToAndCall",
      "outputs": [],
      "stateMutability": "payable",
      "type": "function"
    }
  ],
  "bytecode": "0x60a060405230608052348015610013575f5ffd5b5061001c610021565b6100dd565b5f54610100900460ff161561008c5760405162461bcd60e51b815260206004820152602760248201527f496e697469616c697a61626c653a20636f6e747261637420697320696e697469604482015266616c697a696e6760c81b606482015260840160405180910390fd5b5f5460ff908116146100db575f805460ff191660ff9081179091556040519081527f7f26b83ff96e1f2b6a682f133852f6798a09c465da95921460cefb38474024989060200160405180910390a15b565b6080516122ba6101115f395f8181610702015281816107420152818161083c0152818161087c015261092b01526122ba5ff3fe608060405260043610610161575f3560e01c806355f804b3116100cd578063a22cb46511610087578063c87b56dd11610062578063c87b56dd1461040f578063caa0f92a1461042e578063e985e9c514610442578063f2fde38b14610489575f5ffd5b8063a22cb465146103b2578063a6487c53146103d1578063b88d4fde146103f0575f5ffd5b806355f804b3146103105780636352211e1461032f57806370a082311461034e578063715018a61461036d5780638da5cb5b1461038157806395d89b411461039e575f5ffd5b80633659cfe61161011e5780633659cfe61461025f57806340c10f191461027e57806342842e0e1461029d5780634f1ef286146102bc5780634f558e79146102cf57806352d1902d146102ee575f5ffd5b806301ffc9a71461016557806306fdde0314610199578063081812fc146101ba578063095ea7b3146101f15780630d8e6e2c1461021257806323b872dd14610240575b5f5ffd5b348015610170575f5ffd5b5061018461017f366004611a9c565b6104a8565b60405190151581526020015b60405180910390f35b3480156101a4575f5ffd5b506101ad6104f9565b6040516101909190611ae5565b3480156101c5575f5ffd5b506101d96101d4366004611af7565b610589565b6040516001600160a01b039091168152602001610190565b3480156101fc575f5ffd5b5061021061020b366004611b29565b6105ae565b005b34801561021d575f5ffd5b50604080518082019091526006815265076312e302e360d41b60208201526101ad565b34801561024b575f5ffd5b5061021061025a366004611b51565b6106c7565b34801561026a575f5ffd5b50610210610279366004611b8b565b6106f8565b348015610289575f5ffd5b50610210610298366004611b29565b6107d5565b3480156102a8575f5ffd5b506102106102b7366004611b51565b610818565b6102106102ca366004611c49565b610832565b3480156102da575f5ffd5b506101846102e9366004611af7565b610901565b3480156102f9575f5ffd5b5061030261091f565b604051908152602001610190565b34801561031b575f5ffd5b5061021061032a366004611c94565b6109d0565b34801561033a575f5ffd5b506101d9610349366004611af7565b610a20565b348015610359575f5ffd5b50610302610368366004611b8b565b610a7f565b348015610378575f5ffd5b50610210610b03565b34801561038c575f5ffd5b5060fb546001600160a01b03166101d9565b3480156103a9575f5ffd5b506101ad610b16565b3480156103bd575f5ffd5b506102106103cc366004611cc6565b610b25565b3480156103dc575f5ffd5b506102106103eb366004611cff565b610b30565b3480156103fb575f5ffd5b5061021061040a366004611d8d565b610c5e565b34801561041a575f5ffd5b506101ad610429366004611af7565b610c90565b348015610439575f5ffd5b506101ad610d01565b34801561044d575f5ffd5b5061018461045c366004611df1565b6001600160a01b039182165f908152606a6020908152604080832093909416825291909152205460ff1690565b348015610494575f5ffd5b506102106104a3366004611b8b565b610d21565b5f6001600160e01b031982166380ac58cd60e01b14806104d857506001600160e01b03198216635b5e139f60e01b145b806104f357506301ffc9a760e01b6001600160e01b03198316145b92915050565b60606065805461050890611e22565b80601f016020809104026020016040519081016040528092919081815260200182805461053490611e22565b801561057f5780601f106105565761010080835404028352916020019161057f565b820191905f5260205f20905b81548152906001019060200180831161056257829003601f168201915b5050505050905090565b5f61059382610d97565b505f908152606960205260409020546001600160a01b031690565b5f6105b882610a20565b9050806001600160a01b0316836001600160a01b03160361062a5760405162461bcd60e51b815260206004820152602160248201527f4552433732313a20617070726f76616c20746f2063757272656e74206f776e656044820152603960f91b60648201526084015b60405180910390fd5b336001600160a01b03821614806106465750610646813361045c565b6106b85760405162461bcd60e51b815260206004820152603d60248201527f4552433732313a20617070726f76652063616c6c6572206973206e6f7420746f60448201527f6b656e206f776e6572206f7220617070726f76656420666f7220616c6c0000006064820152608401610621565b6106c28383610df5565b505050565b6106d13382610e62565b6106ed5760405162461bcd60e51b815260040161062190611e54565b6106c2838383610edf565b6001600160a01b037f00000000000000000000000000000000000000000000000000000000000000001630036107405760405162461bcd60e51b815260040161062190611ea1565b7f00000000000000000000000000000000000000000000000000000000000000006001600160a01b03166107885f51602061223e5f395f51905f52546001600160a01b031690565b6001600160a01b0316146107ae5760405162461bcd60e51b815260040161062190611eed565b6107b781611041565b604080515f808252602082019092526107d291839190611049565b50565b6107df82826111b3565b60405181906001600160a01b038416907fb9144c96c86541f6fa89c9f2f02495cccf4b08cd6643e26d34ee00aa586558a8905f90a35050565b6106c283838360405180602001604052805f815250610c5e565b6001600160a01b037f000000000000000000000000000000000000000000000000000000000000000016300361087a5760405162461bcd60e51b815260040161062190611ea1565b7f00000000000000000000000000000000000000000000000000000000000000006001600160a01b03166108c25f51602061223e5f395f51905f52546001600160a01b031690565b6001600160a01b0316146108e85760405162461bcd60e51b815260040161062190611eed565b6108f182611041565b6108fd82826001611049565b5050565b5f818152606760205260408120546001600160a01b031615156104f3565b5f306001600160a01b037f000000000000000000000000000000000000000000000000000000000000000016146109be5760405162461bcd60e51b815260206004820152603860248201527f555550535570677261646561626c653a206d757374206e6f742062652063616c60448201527f6c6564207468726f7567682064656c656761746563616c6c00000000000000006064820152608401610621565b505f51602061223e5f395f51905f5290565b6109d861133b565b61012d6109e58282611f84565b507f6741b2fc379fad678116fe3d4d4b9a1a184ab53ba36b86ad0fa66340b1ab41ad81604051610a159190611ae5565b60405180910390a150565b5f818152606760205260408120546001600160a01b0316806104f35760405162461bcd60e51b8152602060048201526018602482015277115490cdcc8c4e881a5b9d985b1a59081d1bdad95b88125160421b6044820152606401610621565b5f6001600160a01b038216610ae85760405162461bcd60e51b815260206004820152602960248201527f4552433732313a2061646472657373207a65726f206973206e6f7420612076616044820152683634b21037bbb732b960b91b6064820152608401610621565b506001600160a01b03165f9081526068602052604090205490565b610b0b61133b565b610b145f611395565b565b60606066805461050890611e22565b6108fd3383836113e6565b5f54610100900460ff1615808015610b4e57505f54600160ff909116105b80610b675750303b158015610b6757505f5460ff166001145b610bca5760405162461bcd60e51b815260206004820152602e60248201527f496e697469616c697a61626c653a20636f6e747261637420697320616c72656160448201526d191e481a5b9a5d1a585b1a5e995960921b6064820152608401610621565b5f805460ff191660011790558015610beb575f805461ff0019166101001790555b610bf584846114b3565b610bfd6114e3565b610c05611511565b61012d610c128382611f84565b508015610c58575f805461ff0019169055604051600181527f7f26b83ff96e1f2b6a682f133852f6798a09c465da95921460cefb38474024989060200160405180910390a15b50505050565b610c683383610e62565b610c845760405162461bcd60e51b815260040161062190611e54565b610c5884848484611537565b6060610c9b82610d97565b5f610ca461156a565b9050821580610cb35750826001145b15610ce05780604051602001610cc99190612056565b604051602081830303815290604052915050919050565b80610cea8461157a565b604051602001610cc992919061207e565b50919050565b606060405180606001604052806031815260200161220d60319139905090565b610d2961133b565b6001600160a01b038116610d8e5760405162461bcd60e51b815260206004820152602660248201527f4f776e61626c653a206e6577206f776e657220697320746865207a65726f206160448201526564647265737360d01b6064820152608401610621565b6107d281611395565b5f818152606760205260409020546001600160a01b03166107d25760405162461bcd60e51b8152602060048201526018602482015277115490cdcc8c4e881a5b9d985b1a59081d1bdad95b88125160421b6044820152606401610621565b5f81815260696020526040902080546001600160a01b0319166001600160a01b0384169081179091558190610e2982610a20565b6001600160a01b03167f8c5be1e5ebec7d5bd14f71427d1e84f3dd0314c0f7b2291e5b200ac8c7c3b92560405160405180910390a45050565b5f5f610e6d83610a20565b9050806001600160a01b0316846001600160a01b03161480610eb357506001600160a01b038082165f908152606a602090815260408083209388168352929052205460ff165b80610ed75750836001600160a01b0316610ecc84610589565b6001600160a01b0316145b949350505050565b826001600160a01b0316610ef282610a20565b6001600160a01b031614610f185760405162461bcd60e51b8152600401610621906120bb565b6001600160a01b038216610f7a5760405162461bcd60e51b8152602060048201526024808201527f4552433732313a207472616e7366657220746f20746865207a65726f206164646044820152637265737360e01b6064820152608401610621565b826001600160a01b0316610f8d82610a20565b6001600160a01b031614610fb35760405162461bcd60e51b8152600401610621906120bb565b5f81815260696020908152604080832080546001600160a01b03199081169091556001600160a01b038781168086526068855283862080545f1901905590871680865283862080546001019055868652606790945282852080549092168417909155905184937fddf252ad1be2c89b69c2b068fc378daa952ba7f163c4a11628f55a4df523b3ef91a4505050565b6107d261133b565b7f4910fdfa16fed3260ed0e7147f7cc6da11a60208b5b9406d12a635614ffd91435460ff161561107c576106c28361160a565b826001600160a01b03166352d1902d6040518163ffffffff1660e01b8152600401602060405180830381865afa9250505080156110d6575060408051601f3d908101601f191682019092526110d391810190612100565b60015b6111395760405162461bcd60e51b815260206004820152602e60248201527f45524331393637557067726164653a206e657720696d706c656d656e7461746960448201526d6f6e206973206e6f74205555505360901b6064820152608401610621565b5f51602061223e5f395f51905f5281146111a75760405162461bcd60e51b815260206004820152602960248201527f45524331393637557067726164653a20756e737570706f727465642070726f786044820152681a58589b195555525160ba1b6064820152608401610621565b506106c28383836116a5565b6001600160a01b0382166112095760405162461bcd60e51b815260206004820181905260248201527f4552433732313a206d696e7420746f20746865207a65726f20616464726573736044820152606401610621565b5f818152606760205260409020546001600160a01b03161561126d5760405162461bcd60e51b815260206004820152601c60248201527f4552433732313a20746f6b656e20616c7265616479206d696e746564000000006044820152606401610621565b5f818152606760205260409020546001600160a01b0316156112d15760405162461bcd60e51b815260206004820152601c60248201527f4552433732313a20746f6b656e20616c7265616479206d696e746564000000006044820152606401610621565b6001600160a01b0382165f81815260686020908152604080832080546001019055848352606790915280822080546001600160a01b0319168417905551839291907fddf252ad1be2c89b69c2b068fc378daa952ba7f163c4a11628f55a4df523b3ef908290a45050565b60fb546001600160a01b03163314610b145760405162461bcd60e51b815260206004820181905260248201527f4f776e61626c653a2063616c6c6572206973206e6f7420746865206f776e65726044820152606401610621565b60fb80546001600160a01b038381166001600160a01b0319831681179093556040519116919082907f8be0079c531659141344cd1fd0a4f28419497f9722a3daafe3b4186f6b6457e0905f90a35050565b816001600160a01b0316836001600160a01b0316036114475760405162461bcd60e51b815260206004820152601960248201527f4552433732313a20617070726f766520746f2063616c6c6572000000000000006044820152606401610621565b6001600160a01b038381165f818152606a6020908152604080832094871680845294825291829020805460ff191686151590811790915591519182527f17307eab39ab6107e8899845ad3d59bd9653f200f220920489ca2b5937696c31910160405180910390a3505050565b5f54610100900460ff166114d95760405162461bcd60e51b815260040161062190612117565b6108fd82826116c9565b5f54610100900460ff166115095760405162461bcd60e51b815260040161062190612117565b610b14611708565b5f54610100900460ff16610b145760405162461bcd60e51b815260040161062190612117565b611542848484610edf565b61154e84848484611737565b610c585760405162461bcd60e51b815260040161062190612162565b606061012d805461050890611e22565b60605f61158683611834565b60010190505f8167ffffffffffffffff8111156115a5576115a5611ba4565b6040519080825280601f01601f1916602001820160405280156115cf576020820181803683370190505b5090508181016020015b5f19016f181899199a1a9b1b9c1cb0b131b232b360811b600a86061a8153600a85049450846115d957509392505050565b6001600160a01b0381163b6116775760405162461bcd60e51b815260206004820152602d60248201527f455243313936373a206e657720696d706c656d656e746174696f6e206973206e60448201526c1bdd08184818dbdb9d1c9858dd609a1b6064820152608401610621565b5f51602061223e5f395f51905f5280546001600160a01b0319166001600160a01b0392909216919091179055565b6116ae8361190b565b5f825111806116ba5750805b156106c257610c58838361194a565b5f54610100900460ff166116ef5760405162461bcd60e51b815260040161062190612117565b60656116fb8382611f84565b5060666106c28282611f84565b5f54610100900460ff1661172e5760405162461bcd60e51b815260040161062190612117565b610b1433611395565b5f6001600160a01b0384163b1561182957604051630a85bd0160e11b81526001600160a01b0385169063150b7a029061177a9033908990889088906004016121b4565b6020604051808303815f875af19250505080156117b4575060408051601f3d908101601f191682019092526117b1918101906121e6565b60015b61180f573d8080156117e1576040519150601f19603f3d011682016040523d82523d5f602084013e6117e6565b606091505b5080515f036118075760405162461bcd60e51b815260040161062190612162565b805181602001fd5b6001600160e01b031916630a85bd0160e11b149050610ed7565b506001949350505050565b5f8072184f03e93ff9f4daa797ed6e38ed64bf6a1f0160401b83106118725772184f03e93ff9f4daa797ed6e38ed64bf6a1f0160401b830492506040015b6d04ee2d6d415b85acef8100000000831061189e576d04ee2d6d415b85acef8100000000830492506020015b662386f26fc1000083106118bc57662386f26fc10000830492506010015b6305f5e10083106118d4576305f5e100830492506008015b61271083106118e857612710830492506004015b606483106118fa576064830492506002015b600a83106104f35760010192915050565b6119148161160a565b6040516001600160a01b038216907fbc7cd75a20ee27fd9adebab32041f755214dbc6bffa90cc0225b39da2e5c2d3b905f90a250565b606061196f838360405180606001604052806027815260200161225e60279139611976565b9392505050565b60605f5f856001600160a01b0316856040516119929190612201565b5f60405180830381855af49150503d805f81146119ca576040519150601f19603f3d011682016040523d82523d5f602084013e6119cf565b606091505b50915091506119e0868383876119ea565b9695505050505050565b60608315611a585782515f03611a51576001600160a01b0385163b611a515760405162461bcd60e51b815260206004820152601d60248201527f416464726573733a2063616c6c20746f206e6f6e2d636f6e74726163740000006044820152606401610621565b5081610ed7565b610ed78383815115611a6d5781518083602001fd5b8060405162461bcd60e51b81526004016106219190611ae5565b6001600160e01b0319811681146107d2575f5ffd5b5f60208284031215611aac575f5ffd5b813561196f81611a87565b5f81518084528060208401602086015e5f602082860101526020601f19601f83011685010191505092915050565b602081525f61196f6020830184611ab7565b5f60208284031215611b07575f5ffd5b5035919050565b80356001600160a01b0381168114611b24575f5ffd5b919050565b5f5f60408385031215611b3a575f5ffd5b611b4383611b0e565b946020939093013593505050565b5f5f5f60608486031215611b63575f5ffd5b611b6c84611b0e565b9250611b7a60208501611b0e565b929592945050506040919091013590565b5f60208284031215611b9b575f5ffd5b61196f82611b0e565b634e487b7160e01b5f52604160045260245ffd5b5f82601f830112611bc7575f5ffd5b8135602083015f5f67ffffffffffffffff841115611be757611be7611ba4565b50604051601f19601f85018116603f0116810181811067ffffffffffffffff82111715611c1657611c16611ba4565b604052838152905080828401871015611c2d575f5ffd5b838360208301375f602085830101528094505050505092915050565b5f5f60408385031215611c5a575f5ffd5b611c6383611b0e565b9150602083013567ffffffffffffffff811115611c7e575f5ffd5b611c8a85828601611bb8565b9150509250929050565b5f60208284031215611ca4575f5ffd5b813567ffffffffffffffff811115611cba575f5ffd5b610ed784828501611bb8565b5f5f60408385031215611cd7575f5ffd5b611ce083611b0e565b915060208301358015158114611cf4575f5ffd5b809150509250929050565b5f5f5f60608486031215611d11575f5ffd5b833567ffffffffffffffff811115611d27575f5ffd5b611d3386828701611bb8565b935050602084013567ffffffffffffffff811115611d4f575f5ffd5b611d5b86828701611bb8565b925050604084013567ffffffffffffffff811115611d77575f5ffd5b611d8386828701611bb8565b9150509250925092565b5f5f5f5f60808587031215611da0575f5ffd5b611da985611b0e565b9350611db760208601611b0e565b925060408501359150606085013567ffffffffffffffff811115611dd9575f5ffd5b611de587828801611bb8565b91505092959194509250565b5f5f60408385031215611e02575f5ffd5b611e0b83611b0e565b9150611e1960208401611b0e565b90509250929050565b600181811c90821680611e3657607f821691505b602082108103610cfb57634e487b7160e01b5f52602260045260245ffd5b6020808252602d908201527f4552433732313a2063616c6c6572206973206e6f7420746f6b656e206f776e6560408201526c1c881bdc88185c1c1c9bdd9959609a1b606082015260800190565b6020808252602c908201527f46756e6374696f6e206d7573742062652063616c6c6564207468726f7567682060408201526b19195b1959d85d1958d85b1b60a21b606082015260800190565b6020808252602c908201527f46756e6374696f6e206d7573742062652063616c6c6564207468726f7567682060408201526b6163746976652070726f787960a01b606082015260800190565b601f8211156106c257805f5260205f20601f840160051c81016020851015611f5e5750805b601f840160051c820191505b81811015611f7d575f8155600101611f6a565b5050505050565b815167ffffffffffffffff811115611f9e57611f9e611ba4565b611fb281611fac8454611e22565b84611f39565b6020601f821160018114611fe4575f8315611fcd5750848201515b5f19600385901b1c1916600184901b178455611f7d565b5f84815260208120601f198516915b828110156120135787850151825560209485019460019092019101611ff3565b508482101561203057868401515f19600387901b60f8161c191681555b50505050600190811b01905550565b5f81518060208401855e5f93019283525090919050565b5f612061828461203f565b6c313ab13abcb4b2b9173539b7b760991b8152600d019392505050565b5f612089828561203f565b67313ab13abcb4b2b960c11b81526120a4600882018561203f565b64173539b7b760d91b815260050195945050505050565b60208082526025908201527f4552433732313a207472616e736665722066726f6d20696e636f72726563742060408201526437bbb732b960d91b606082015260800190565b5f60208284031215612110575f5ffd5b5051919050565b6020808252602b908201527f496e697469616c697a61626c653a20636f6e7472616374206973206e6f74206960408201526a6e697469616c697a696e6760a81b606082015260800190565b60208082526032908201527f4552433732313a207472616e7366657220746f206e6f6e20455243373231526560408201527131b2b4bb32b91034b6b83632b6b2b73a32b960711b606082015260800190565b6001600160a01b03858116825284166020820152604081018390526080606082018190525f906119e090830184611ab7565b5f602082840312156121f6575f5ffd5b815161196f81611a87565b5f61196f828461203f56fe546f6b656e20494420747261636b696e67206e6f7420696d706c656d656e74656420696e20746869732076657273696f6e360894a13ba1a3210667c828492db98dca3e2076cc3735a920a3ca505d382bbc416464726573733a206c6f772d6c6576656c2064656c65676174652063616c6c206661696c6564a2646970667358221220f64839d0ac70d5cb12ec1b708bf00af9dc013e59ec441201ca0a8efb059979a764736f6c634300081c0033",
  "linkReferences": {},
  "deployedLinkReferences": {},
  "immutableReferences": {
    "687": [
      {
        "length": 32,
        "start": 1794
      },
      {
        "length": 32,
        "start": 1858
      },
      {
        "length": 32,
        "start": 2108
      },
      {
        "length": 32,
        "start": 2172
      },
      {
        "length": 32,
        "start": 2347
      }
    ]
  },
  "inputSourceName": "project/contracts/jobThree/NFTERC721.sol",
  "buildInfoId": "solc-0_8_28-cf4b055cb2871c0fa8cad656dcaf9ae9594dc6ff"
}