{
  "_format": "hh3-artifact-1",
  "contractName": "PriceConsumer",
  "sourceName": "contracts/jobThree/PriceConsumer.sol",
  "abi": [
    {
      "inputs": [],
      "stateMutability": "nonpayable",
      "type": "constructor"
    },
    {
      "inputs": [],
      "name": "ArrayLengthMismatch",
      "type": "error"
    },
    {
      "inputs": [],
      "name": "InvalidAddress",
      "type": "error"
    },
    {
      "inputs": [],
      "name": "InvalidPrice",
      "type": "error"
    },
    {
      "inputs": [],
      "name": "PriceFeedAlreadySet",
      "type": "error"
    },
    {
      "inputs": [],
      "name": "PriceFeedNotSet",
      "type": "error"
    },
    {
      "inputs": [],
      "name": "PriceFeedRequestPending",
      "type": "error"
    },
    {
      "inputs": [],
      "name": "RoundNotComplete",
      "type": "error"
    },
    {
      "inputs": [],
      "name": "StalePrice",
      "type": "error"
    },
    {
      "anonymous": false,
      "inputs": [
        {
          "indexed": false,
          "internalType": "address",
          "name": "previousAdmin",
          "type": "address"
        },
        {
          "indexed": false,
          "internalType": "address",
          "name": "newAdmin",
          "type": "address"
        }
      ],
      "name": "AdminChanged",
      "type": "event"
    },
    {
      "anonymous": false,
      "inputs": [
        {
          "indexed": true,
          "internalType": "address",
          "name": "beacon",
          "type": "address"
        }
      ],
      "name": "BeaconUpgraded",
      "type": "event"
    },
    {
      "anonymous": false,
      "inputs": [
        {
          "indexed": false,
          "internalType": "uint8",
          "name": "version",
          "type": "uint8"
        }
      ],
      "name": "Initialized",
      "type": "event"
    },
    {
      "anonymous": false,
      "inputs": [
        {
          "indexed": true,
          "internalType": "address",
          "name": "previousOwner",
          "type": "address"
        },
        {
          "indexed": true,
          "internalType": "address",
          "name": "newOwner",
          "type": "address"
        }
      ],
      "name": "OwnershipTransferred",
      "type": "event"
    },
    {
      "anonymous": false,
      "inputs": [
        {
          "indexed": true,
          "internalType": "address",
          "name": "token",
          "type": "address"
        },
        {
          "indexed": true,
          "internalType": "address",
          "name": "priceFeed",
          "type": "address"
        }
      ],
      "name": "PriceFeedApproved",
      "type": "event"
    },
    {
      "anonymous": false,
      "inputs": [
        {
          "indexed": true,
          "internalType": "address",
          "name": "requester",
          "type": "address"
        },
        {
          "indexed": true,
          "internalType": "address",
          "name": "token",
          "type": "address"
        },
        {
          "indexed": false,
          "internalType": "string",
          "name": "tokenSymbol",
          "type": "string"
        }
      ],
      "name": "PriceFeedRequested",
      "type": "event"
    },
    {
      "anonymous": false,
      "inputs": [
        {
          "indexed": true,
          "internalType": "address",
          "name": "token",
          "type": "address"
        },
        {
          "indexed": true,
          "internalType": "address",
          "name": "priceFeed",
          "type": "address"
        }
      ],
      "name": "PriceFeedUpdated",
      "type": "event"
    },
    {
      "anonymous": false,
      "inputs": [
        {
          "indexed": true,
          "internalType": "address",
          "name": "token",
          "type": "address"
        },
        {
          "indexed": false,
          "internalType": "int256",
          "name": "price",
          "type": "int256"
        }
      ],
      "name": "PriceUpdated",
      "type": "event"
    },
    {
      "anonymous": false,
      "inputs": [
        {
          "indexed": true,
          "internalType": "address",
          "name": "implementation",
          "type": "address"
        }
      ],
      "name": "Upgraded",
      "type": "event"
    },
    {
      "inputs": [
        {
          "internalType": "address",
          "name": "token",
          "type": "address"
        },
        {
          "internalType": "address",
          "name": "priceFeed",
          "type": "address"
        }
      ],
      "name": "approvePriceFeed",
      "outputs": [],
      "stateMutability": "nonpayable",
      "type": "function"
    },
    {
      "inputs": [
        {
          "internalType": "address[]",
          "name": "tokens",
          "type": "address[]"
        },
        {
          "internalType": "address[]",
          "name": "feeds",
          "type": "address[]"
        }
      ],
      "name": "batchSetPriceFeeds",
      "outputs": [],
      "stateMutability": "nonpayable",
      "type": "function"
    },
    {
      "inputs": [
        {
          "internalType": "uint256",
          "name": "tokenAmount",
          "type": "uint256"
        },
        {
          "internalType": "address",
          "name": "token",
          "type": "address"
        },
        {
          "internalType": "uint8",
          "name": "tokenDecimals",
          "type": "uint8"
        }
      ],
      "name": "calculateValue",
      "outputs": [
        {
          "internalType": "uint256",
          "name": "",
          "type": "uint256"
        }
      ],
      "stateMutability": "view",
      "type": "function"
    },
    {
      "inputs": [],
      "name": "getAllTokensWithPriceFeeds",
      "outputs": [
        {
          "internalType": "address[]",
          "name": "tokens",
          "type": "address[]"
        }
      ],
      "stateMutability": "view",
      "type": "function"
    },
    {
      "inputs": [
        {
          "internalType": "address",
          "name": "token",
          "type": "address"
        }
      ],
      "name": "getLatestPrice",
      "outputs": [
        {
          "internalType": "int256",
          "name": "",
          "type": "int256"
        }
      ],
      "stateMutability": "nonpayable",
      "type": "function"
    },
    {
      "inputs": [
        {
          "internalType": "address",
          "name": "token",
          "type": "address"
        }
      ],
      "name": "getNormalizedPrice",
      "outputs": [
        {
          "internalType": "uint256",
          "name": "",
          "type": "uint256"
        }
      ],
      "stateMutability": "view",
      "type": "function"
    },
    {
      "inputs": [
        {
          "internalType": "address",
          "name": "token",
          "type": "address"
        }
      ],
      "name": "getPriceData",
      "outputs": [
        {
          "internalType": "int256",
          "name": "rawPrice",
          "type": "int256"
        },
        {
          "internalType": "uint8",
          "name": "decimals",
          "type": "uint8"
        },
        {
          "internalType": "string",
          "name": "description",
          "type": "string"
        }
      ],
      "stateMutability": "view",
      "type": "function"
    },
    {
      "inputs": [
        {
          "internalType": "address",
          "name": "token",
          "type": "address"
        }
      ],
      "name": "getPriceFeedInfo",
      "outputs": [
        {
          "internalType": "string",
          "name": "description",
          "type": "string"
        },
        {
          "internalType": "uint8",
          "name": "decimals",
          "type": "uint8"
        },
        {
          "internalType": "uint256",
          "name": "version",
          "type": "uint256"
        }
      ],
      "stateMutability": "view",
      "type": "function"
    },
    {
      "inputs": [],
      "name": "getVersion",
      "outputs": [
        {
          "internalType": "string",
          "name": "",
          "type": "string"
        }
      ],
      "stateMutability": "pure",
      "type": "function"
    },
    {
      "inputs": [
        {
          "internalType": "address",
          "name": "_ethPriceFeed",
          "type": "address"
        }
      ],
      "name": "initialize",
      "outputs": [],
      "stateMutability": "nonpayable",
      "type": "function"
    },
    {
      "inputs": [
        {
          "internalType": "address",
          "name": "token",
          "type": "address"
        }
      ],
      "name": "isPriceFeedSet",
      "outputs": [
        {
          "internalType": "bool",
          "name": "",
          "type": "bool"
        }
      ],
      "stateMutability": "view",
      "type": "function"
    },
    {
      "inputs": [],
      "name": "owner",
      "outputs": [
        {
          "internalType": "address",
          "name": "",
          "type": "address"
        }
      ],
      "stateMutability": "view",
      "type": "function"
    },
    {
      "inputs": [
        {
          "internalType": "address",
          "name": "",
          "type": "address"
        }
      ],
      "name": "pendingPriceFeedRequests",
      "outputs": [
        {
          "internalType": "bool",
          "name": "",
          "type": "bool"
        }
      ],
      "stateMutability": "view",
      "type": "function"
    },
    {
      "inputs": [
        {
          "internalType": "address",
          "name": "",
          "type": "address"
        }
      ],
      "name": "priceFeeds",
      "outputs": [
        {
          "internalType": "contract AggregatorV3Interface",
          "name": "",
          "type": "address"
        }
      ],
      "stateMutability": "view",
      "type": "function"
    },
    {
      "inputs": [],
      "name": "proxiableUUID",
      "outputs": [
        {
          "internalType": "bytes32",
          "name": "",
          "type": "bytes32"
        }
      ],
      "stateMutability": "view",
      "type": "function"
    },
    {
      "inputs": [
        {
          "internalType": "address",
          "name": "token",
          "type": "address"
        }
      ],
      "name": "removePriceFeed",
      "outputs": [],
      "stateMutability": "nonpayable",
      "type": "function"
    },
    {
      "inputs": [],
      "name": "renounceOwnership",
      "outputs": [],
      "stateMutability": "nonpayable",
      "type": "function"
    },
    {
      "inputs": [
        {
          "internalType": "address",
          "name": "token",
          "type": "address"
        },
        {
          "internalType": "string",
          "name": "tokenSymbol",
          "type": "string"
        }
      ],
      "name": "requestPriceFeed",
      "outputs": [],
      "stateMutability": "nonpayable",
      "type": "function"
    },
    {
      "inputs": [
        {
          "internalType": "address",
          "name": "token",
          "type": "address"
        },
        {
          "internalType": "address",
          "name": "priceFeed",
          "type": "address"
        }
      ],
      "name": "setPriceFeed",
      "outputs": [],
      "stateMutability": "nonpayable",
      "type": "function"
    },
    {
      "inputs": [
        {
          "internalType": "address",
          "name": "newOwner",
          "type": "address"
        }
      ],
      "name": "transferOwnership",
      "outputs": [],
      "stateMutability": "nonpayable",
      "type": "function"
    },
    {
      "inputs": [
        {
          "internalType": "address",
          "name": "newImplementation",
          "type": "address"
        }
      ],
      "name": "upgradeTo",
      "outputs": [],
      "stateMutability": "nonpayable",
      "type": "function"
    },
    {
      "inputs": [
        {
          "internalType": "address",
          "name": "newImplementation",
          "type": "address"
        },
        {
          "internalType": "bytes",
          "name": "data",
          "type": "bytes"
        }
      ],
      "name": "upgradeToAndCall",
      "outputs": [],
      "stateMutability": "payable",
      "type": "function"
    }
  ],
  "bytecode": "0x60a060405230608052348015610013575f5ffd5b5061001c610021565b6100dd565b5f54610100900460ff161561008c5760405162461bcd60e51b815260206004820152602760248201527f496e697469616c697a61626c653a20636f6e747261637420697320696e697469604482015266616c697a696e6760c81b606482015260840160405180910390fd5b5f5460ff908116146100db575f805460ff191660ff9081179091556040519081527f7f26b83ff96e1f2b6a682f133852f6798a09c465da95921460cefb38474024989060200160405180910390a15b565b608051611ec76101115f395f81816107ce015281816108170152818161097e015281816109be0152610a4f0152611ec75ff3fe608060405260043610610131575f3560e01c8063548fe3d9116100a85780638da5cb5b1161006d5780638da5cb5b146103945780639dcb511a146103c5578063c4d66de8146103f9578063e25d1da414610418578063f2fde38b14610437578063fceb002414610456575f5ffd5b8063548fe3d9146102f3578063715018a61461031257806372279ba11461032657806376e11286146103545780637af118b214610373575f5ffd5b80633029c35c116100f95780633029c35c1461023f5780633659cfe61461026d5780633c27ebdc1461028e5780634554bca8146102ad5780634f1ef286146102cc57806352d1902d146102df575f5ffd5b806308f7a1ef146101355780630d8e6e2c1461017857806316345f18146101ba5780631e1f1264146101e757806322ab234514610206575b5f5ffd5b348015610140575f5ffd5b5061016361014f36600461179b565b60fc6020525f908152604090205460ff1681565b60405190151581526020015b60405180910390f35b348015610183575f5ffd5b50604080518082018252601481527305072696365436f6e73756d65722076312e302e360641b6020820152905161016f91906117e2565b3480156101c5575f5ffd5b506101d96101d436600461179b565b610475565b60405190815260200161016f565b3480156101f2575f5ffd5b506101d961020136600461179b565b6105f3565b348015610211575f5ffd5b5061016361022036600461179b565b6001600160a01b039081165f90815260fb602052604090205416151590565b34801561024a575f5ffd5b5061025e61025936600461179b565b610657565b60405161016f939291906117f4565b348015610278575f5ffd5b5061028c61028736600461179b565b6107c4565b005b348015610299575f5ffd5b506101d96102a8366004611829565b6108aa565b3480156102b8575f5ffd5b5061028c6102c7366004611866565b6108ff565b61028c6102da36600461193e565b610974565b3480156102ea575f5ffd5b506101d9610a43565b3480156102fe575f5ffd5b5061028c61030d36600461193e565b610af4565b34801561031d575f5ffd5b5061028c610bc5565b348015610331575f5ffd5b5061034561034036600461179b565b610bd8565b60405161016f9392919061199c565b34801561035f575f5ffd5b5061028c61036e366004611866565b610c6c565b34801561037e575f5ffd5b50610387610cf1565b60405161016f91906119bd565b34801561039f575f5ffd5b506033546001600160a01b03165b6040516001600160a01b03909116815260200161016f565b3480156103d0575f5ffd5b506103ad6103df36600461179b565b60fb6020525f90815260409020546001600160a01b031681565b348015610404575f5ffd5b5061028c61041336600461179b565b610e1a565b348015610423575f5ffd5b5061028c610432366004611a50565b610f77565b348015610442575f5ffd5b5061028c61045136600461179b565b611009565b348015610461575f5ffd5b5061028c61047036600461179b565b61107f565b5f61047e6110d9565b6001600160a01b038083165f90815260fb602052604090205416806104b657604051637e68a04560e01b815260040160405180910390fd5b5f5f5f5f846001600160a01b031663feaf968c6040518163ffffffff1660e01b815260040160a060405180830381865afa1580156104f6573d5f5f3e3d5ffd5b505050506040513d601f19601f8201168201806040525081019061051a9190611ad5565b9450945050935093505f83136105425760405162bfc92160e01b815260040160405180910390fd5b815f036105615760405162ace4c560e51b815260040160405180910390fd5b8369ffffffffffffffffffff168169ffffffffffffffffffff16101561059a57604051630cd5fa0760e11b815260040160405180910390fd5b866001600160a01b03167f4606195e7fccfc3f139576179ba52e8927959bc474ce09c18d7e20790144bb5f846040516105d591815260200190565b60405180910390a2509093505050506105ee600160c955565b919050565b5f5f5f6105ff84611139565b9150915060128160ff1610156106375761061a816012611b37565b61062590600a611c33565b61062f9083611c41565b949350505050565b610642601282611b37565b61064d90600a611c33565b61062f9083611c58565b6001600160a01b038082165f90815260fb60205260408120546060928291168061069457604051637e68a04560e01b815260040160405180910390fd5b806001600160a01b0316637284e4166040518163ffffffff1660e01b81526004015f60405180830381865afa1580156106cf573d5f5f3e3d5ffd5b505050506040513d5f823e601f3d908101601f191682016040526106f69190810190611c77565b816001600160a01b031663313ce5676040518163ffffffff1660e01b8152600401602060405180830381865afa158015610732573d5f5f3e3d5ffd5b505050506040513d601f19601f820116820180604052508101906107569190611cec565b826001600160a01b03166354fd4d506040518163ffffffff1660e01b8152600401602060405180830381865afa158015610792573d5f5f3e3d5ffd5b505050506040513d601f19601f820116820180604052508101906107b69190611d0e565b935093509350509193909250565b6001600160a01b037f00000000000000000000000000000000000000000000000000000000000000001630036108155760405162461bcd60e51b815260040161080c90611d25565b60405180910390fd5b7f00000000000000000000000000000000000000000000000000000000000000006001600160a01b031661085d5f516020611e4b5f395f51905f52546001600160a01b031690565b6001600160a01b0316146108835760405162461bcd60e51b815260040161080c90611d71565b61088c81611249565b604080515f808252602082019092526108a791839190611251565b50565b5f5f6108b584611139565b5090505f81136108d75760405162bfc92160e01b815260040160405180910390fd5b6108e283600a611c33565b6108ec8683611c41565b6108f69190611c58565b95945050505050565b6109076113c0565b6001600160a01b0382165f90815260fc60205260409020805460ff191690556109308282610c6c565b806001600160a01b0316826001600160a01b03167fc31a60849b6d022ea564d732a1bdfd97665c992098801653949ad57af94db7d960405160405180910390a35050565b6001600160a01b037f00000000000000000000000000000000000000000000000000000000000000001630036109bc5760405162461bcd60e51b815260040161080c90611d25565b7f00000000000000000000000000000000000000000000000000000000000000006001600160a01b0316610a045f516020611e4b5f395f51905f52546001600160a01b031690565b6001600160a01b031614610a2a5760405162461bcd60e51b815260040161080c90611d71565b610a3382611249565b610a3f82826001611251565b5050565b5f306001600160a01b037f00000000000000000000000000000000000000000000000000000000000000001614610ae25760405162461bcd60e51b815260206004820152603860248201527f555550535570677261646561626c653a206d757374206e6f742062652063616c60448201527f6c6564207468726f7567682064656c656761746563616c6c0000000000000000606482015260840161080c565b505f516020611e4b5f395f51905f5290565b6001600160a01b038083165f90815260fb60205260409020541615610b2c57604051636e0da7eb60e01b815260040160405180910390fd5b6001600160a01b0382165f90815260fc602052604090205460ff1615610b655760405163f6f66ed160e01b815260040160405180910390fd5b6001600160a01b0382165f81815260fc602052604090819020805460ff191660011790555133907f2e9bc6c8bb875388d8e5684b1a1f689f4131c6e05c28a97d5a8c6843b9bfb39390610bb99085906117e2565b60405180910390a35050565b610bcd6113c0565b610bd65f61141a565b565b5f5f6060610be584611139565b6001600160a01b038087165f90815260fb6020526040808220548151633942720b60e11b815291519598509396509290911692637284e4169260048082019392918290030181865afa158015610c3d573d5f5f3e3d5ffd5b505050506040513d5f823e601f3d908101601f19168201604052610c649190810190611c77565b929491935050565b610c746113c0565b6001600160a01b038116610c9b5760405163e6c4247b60e01b815260040160405180910390fd5b6001600160a01b038281165f81815260fb602052604080822080546001600160a01b0319169486169485179055517fa8abe0398416476db5b05737cd4da3b3cbde5012d978a6a6c3fd49d3217535369190a35050565b60605f805b6001600160a01b03811015610d4c576001600160a01b038082165f90815260fb602052604090205482911615610d345782610d3081611dbd565b9350505b6103e88310610d435750610d4c565b50600101610cf6565b508067ffffffffffffffff811115610d6657610d66611897565b604051908082528060200260200182016040528015610d8f578160200160208202803683370190505b5091505f805b6001600160a01b03811015610e14576001600160a01b038082165f90815260fb602052604090205482911615610dfe5780858481518110610dd857610dd8611dd5565b6001600160a01b039092166020928302919091019091015282610dfa81611dbd565b9350505b838310610e0b5750610e14565b50600101610d95565b50505090565b5f54610100900460ff1615808015610e3857505f54600160ff909116105b80610e515750303b158015610e5157505f5460ff166001145b610eb45760405162461bcd60e51b815260206004820152602e60248201527f496e697469616c697a61626c653a20636f6e747261637420697320616c72656160448201526d191e481a5b9a5d1a585b1a5e995960921b606482015260840161080c565b5f805460ff191660011790558015610ed5575f805461ff0019166101001790555b610edd61146b565b610ee5611499565b610eed6114bf565b5f805260fb6020527fc88390e7e62175be0932452175b6a7222b6b094ab0ef984a5153c620345d897580546001600160a01b0319166001600160a01b0384161790558015610a3f575f805461ff0019169055604051600181527f7f26b83ff96e1f2b6a682f133852f6798a09c465da95921460cefb38474024989060200160405180910390a15050565b610f7f6113c0565b828114610f9f5760405163512509d360e11b815260040160405180910390fd5b5f5b8381101561100257610ffa858583818110610fbe57610fbe611dd5565b9050602002016020810190610fd3919061179b565b848484818110610fe557610fe5611dd5565b905060200201602081019061036e919061179b565b600101610fa1565b5050505050565b6110116113c0565b6001600160a01b0381166110765760405162461bcd60e51b815260206004820152602660248201527f4f776e61626c653a206e6577206f776e657220697320746865207a65726f206160448201526564647265737360d01b606482015260840161080c565b6108a78161141a565b6110876113c0565b6001600160a01b0381165f81815260fb602052604080822080546001600160a01b0319169055519091907fa8abe0398416476db5b05737cd4da3b3cbde5012d978a6a6c3fd49d321753536908390a350565b600260c9540361112b5760405162461bcd60e51b815260206004820152601f60248201527f5265656e7472616e637947756172643a207265656e7472616e742063616c6c00604482015260640161080c565b600260c955565b600160c955565b6001600160a01b038082165f90815260fb602052604081205490918291168061117557604051637e68a04560e01b815260040160405180910390fd5b806001600160a01b031663feaf968c6040518163ffffffff1660e01b815260040160a060405180830381865afa1580156111b1573d5f5f3e3d5ffd5b505050506040513d601f19601f820116820180604052508101906111d59190611ad5565b50506040805163313ce56760e01b815290519296506001600160a01b038516935063313ce56792600480830193506020928290030181865afa15801561121d573d5f5f3e3d5ffd5b505050506040513d601f19601f820116820180604052508101906112419190611cec565b915050915091565b6108a76113c0565b7f4910fdfa16fed3260ed0e7147f7cc6da11a60208b5b9406d12a635614ffd91435460ff161561128957611284836114ed565b505050565b826001600160a01b03166352d1902d6040518163ffffffff1660e01b8152600401602060405180830381865afa9250505080156112e3575060408051601f3d908101601f191682019092526112e091810190611d0e565b60015b6113465760405162461bcd60e51b815260206004820152602e60248201527f45524331393637557067726164653a206e657720696d706c656d656e7461746960448201526d6f6e206973206e6f74205555505360901b606482015260840161080c565b5f516020611e4b5f395f51905f5281146113b45760405162461bcd60e51b815260206004820152602960248201527f45524331393637557067726164653a20756e737570706f727465642070726f786044820152681a58589b195555525160ba1b606482015260840161080c565b50611284838383611588565b6033546001600160a01b03163314610bd65760405162461bcd60e51b815260206004820181905260248201527f4f776e61626c653a2063616c6c6572206973206e6f7420746865206f776e6572604482015260640161080c565b603380546001600160a01b038381166001600160a01b0319831681179093556040519116919082907f8be0079c531659141344cd1fd0a4f28419497f9722a3daafe3b4186f6b6457e0905f90a35050565b5f54610100900460ff166114915760405162461bcd60e51b815260040161080c90611de9565b610bd66115b2565b5f54610100900460ff16610bd65760405162461bcd60e51b815260040161080c90611de9565b5f54610100900460ff166114e55760405162461bcd60e51b815260040161080c90611de9565b610bd66115e1565b6001600160a01b0381163b61155a5760405162461bcd60e51b815260206004820152602d60248201527f455243313936373a206e657720696d706c656d656e746174696f6e206973206e60448201526c1bdd08184818dbdb9d1c9858dd609a1b606482015260840161080c565b5f516020611e4b5f395f51905f5280546001600160a01b0319166001600160a01b0392909216919091179055565b61159183611607565b5f8251118061159d5750805b15611284576115ac8383611646565b50505050565b5f54610100900460ff166115d85760405162461bcd60e51b815260040161080c90611de9565b610bd63361141a565b5f54610100900460ff166111325760405162461bcd60e51b815260040161080c90611de9565b611610816114ed565b6040516001600160a01b038216907fbc7cd75a20ee27fd9adebab32041f755214dbc6bffa90cc0225b39da2e5c2d3b905f90a250565b606061166b8383604051806060016040528060278152602001611e6b60279139611674565b90505b92915050565b60605f5f856001600160a01b0316856040516116909190611e34565b5f60405180830381855af49150503d805f81146116c8576040519150601f19603f3d011682016040523d82523d5f602084013e6116cd565b606091505b50915091506116de868383876116e8565b9695505050505050565b606083156117565782515f0361174f576001600160a01b0385163b61174f5760405162461bcd60e51b815260206004820152601d60248201527f416464726573733a2063616c6c20746f206e6f6e2d636f6e7472616374000000604482015260640161080c565b508161062f565b61062f838381511561176b5781518083602001fd5b8060405162461bcd60e51b815260040161080c91906117e2565b80356001600160a01b03811681146105ee575f5ffd5b5f602082840312156117ab575f5ffd5b61166b82611785565b5f81518084528060208401602086015e5f602082860101526020601f19601f83011685010191505092915050565b602081525f61166b60208301846117b4565b606081525f61180660608301866117b4565b60ff9490941660208301525060400152919050565b60ff811681146108a7575f5ffd5b5f5f5f6060848603121561183b575f5ffd5b8335925061184b60208501611785565b9150604084013561185b8161181b565b809150509250925092565b5f5f60408385031215611877575f5ffd5b61188083611785565b915061188e60208401611785565b90509250929050565b634e487b7160e01b5f52604160045260245ffd5b604051601f8201601f1916810167ffffffffffffffff811182821017156118d4576118d4611897565b604052919050565b5f67ffffffffffffffff8211156118f5576118f5611897565b50601f01601f191660200190565b5f611915611910846118dc565b6118ab565b9050828152838383011115611928575f5ffd5b828260208301375f602084830101529392505050565b5f5f6040838503121561194f575f5ffd5b61195883611785565b9150602083013567ffffffffffffffff811115611973575f5ffd5b8301601f81018513611983575f5ffd5b61199285823560208401611903565b9150509250929050565b83815260ff83166020820152606060408201525f6108f660608301846117b4565b602080825282518282018190525f918401906040840190835b818110156119fd5783516001600160a01b03168352602093840193909201916001016119d6565b509095945050505050565b5f5f83601f840112611a18575f5ffd5b50813567ffffffffffffffff811115611a2f575f5ffd5b6020830191508360208260051b8501011115611a49575f5ffd5b9250929050565b5f5f5f5f60408587031215611a63575f5ffd5b843567ffffffffffffffff811115611a79575f5ffd5b611a8587828801611a08565b909550935050602085013567ffffffffffffffff811115611aa4575f5ffd5b611ab087828801611a08565b95989497509550505050565b805169ffffffffffffffffffff811681146105ee575f5ffd5b5f5f5f5f5f60a08688031215611ae9575f5ffd5b611af286611abc565b60208701516040880151606089015192975090955093509150611b1760808701611abc565b90509295509295909350565b634e487b7160e01b5f52601160045260245ffd5b60ff828116828216039081111561166e5761166e611b23565b6001815b6001841115611b8b57808504811115611b6f57611b6f611b23565b6001841615611b7d57908102905b60019390931c928002611b54565b935093915050565b5f82611ba15750600161166e565b81611bad57505f61166e565b8160018114611bc35760028114611bcd57611be9565b600191505061166e565b60ff841115611bde57611bde611b23565b50506001821b61166e565b5060208310610133831016604e8410600b8410161715611c0c575081810a61166e565b611c185f198484611b50565b805f1904821115611c2b57611c2b611b23565b029392505050565b5f61166b60ff841683611b93565b808202811582820484141761166e5761166e611b23565b5f82611c7257634e487b7160e01b5f52601260045260245ffd5b500490565b5f60208284031215611c87575f5ffd5b815167ffffffffffffffff811115611c9d575f5ffd5b8201601f81018413611cad575f5ffd5b8051611cbb611910826118dc565b818152856020838501011115611ccf575f5ffd5b8160208401602083015e5f91810160200191909152949350505050565b5f60208284031215611cfc575f5ffd5b8151611d078161181b565b9392505050565b5f60208284031215611d1e575f5ffd5b5051919050565b6020808252602c908201527f46756e6374696f6e206d7573742062652063616c6c6564207468726f7567682060408201526b19195b1959d85d1958d85b1b60a21b606082015260800190565b6020808252602c908201527f46756e6374696f6e206d7573742062652063616c6c6564207468726f7567682060408201526b6163746976652070726f787960a01b606082015260800190565b5f60018201611dce57611dce611b23565b5060010190565b634e487b7160e01b5f52603260045260245ffd5b6020808252602b908201527f496e697469616c697a61626c653a20636f6e7472616374206973206e6f74206960408201526a6e697469616c697a696e6760a81b606082015260800190565b5f82518060208501845e5f92019182525091905056fe360894a13ba1a3210667c828492db98dca3e2076cc3735a920a3ca505d382bbc416464726573733a206c6f772d6c6576656c2064656c65676174652063616c6c206661696c6564a26469706673582212205b3a403dd6300423f5bec43444444b466d4c9fb0ab19451b5e8d8d61449dbdbb64736f6c634300081c0033",
  "linkReferences": {},
  "deployedLinkReferences": {},
  "immutableReferences": {
    "733": [
      {
        "length": 32,
        "start": 1998
      },
      {
        "length": 32,
        "start": 2071
      },
      {
        "length": 32,
        "start": 2430
      },
      {
        "length": 32,
        "start": 2494
      },
      {
        "length": 32,
        "start": 2639
      }
    ]
  },
  "inputSourceName": "project/contracts/jobThree/PriceConsumer.sol",
  "buildInfoId": "solc-0_8_28-789364deae1876f41dbdddf8724207bc0accec24"
}