{
  "_format": "hh3-artifact-1",
  "contractName": "NFTAuction",
  "sourceName": "contracts/jobThree/NFTAuction.sol",
  "abi": [
    {
      "inputs": [],
      "stateMutability": "nonpayable",
      "type": "constructor"
    },
    {
      "inputs": [],
      "name": "AuctionAlreadyEnded",
      "type": "error"
    },
    {
      "inputs": [],
      "name": "AuctionHasEnded",
      "type": "error"
    },
    {
      "inputs": [],
      "name": "AuctionNotStarted",
      "type": "error"
    },
    {
      "inputs": [],
      "name": "BidTooLow",
      "type": "error"
    },
    {
      "inputs": [],
      "name": "DurationTooLong",
      "type": "error"
    },
    {
      "inputs": [],
      "name": "DurationTooShort",
      "type": "error"
    },
    {
      "inputs": [],
      "name": "FeeTooHigh",
      "type": "error"
    },
    {
      "inputs": [],
      "name": "InvalidAddress",
      "type": "error"
    },
    {
      "inputs": [],
      "name": "InvalidFeeTiers",
      "type": "error"
    },
    {
      "inputs": [],
      "name": "InvalidPaymentToken",
      "type": "error"
    },
    {
      "inputs": [],
      "name": "InvalidStartPrice",
      "type": "error"
    },
    {
      "inputs": [],
      "name": "NotAuthorized",
      "type": "error"
    },
    {
      "inputs": [],
      "name": "PriceFeedNotSet",
      "type": "error"
    },
    {
      "inputs": [],
      "name": "RefundFailed",
      "type": "error"
    },
    {
      "inputs": [],
      "name": "TransferFailed",
      "type": "error"
    },
    {
      "anonymous": false,
      "inputs": [
        {
          "indexed": false,
          "internalType": "address",
          "name": "previousAdmin",
          "type": "address"
        },
        {
          "indexed": false,
          "internalType": "address",
          "name": "newAdmin",
          "type": "address"
        }
      ],
      "name": "AdminChanged",
      "type": "event"
    },
    {
      "anonymous": false,
      "inputs": [
        {
          "indexed": true,
          "internalType": "uint256",
          "name": "auctionId",
          "type": "uint256"
        }
      ],
      "name": "AuctionCancelled",
      "type": "event"
    },
    {
      "anonymous": false,
      "inputs": [
        {
          "indexed": true,
          "internalType": "uint256",
          "name": "auctionId",
          "type": "uint256"
        },
        {
          "indexed": true,
          "internalType": "address",
          "name": "seller",
          "type": "address"
        },
        {
          "indexed": true,
          "internalType": "address",
          "name": "nftContract",
          "type": "address"
        },
        {
          "indexed": false,
          "internalType": "uint256",
          "name": "tokenId",
          "type": "uint256"
        },
        {
          "indexed": false,
          "internalType": "uint256",
          "name": "startTime",
          "type": "uint256"
        },
        {
          "indexed": false,
          "internalType": "uint256",
          "name": "endTime",
          "type": "uint256"
        },
        {
          "indexed": false,
          "internalType": "uint256",
          "name": "startPrice",
          "type": "uint256"
        },
        {
          "indexed": false,
          "internalType": "address",
          "name": "paymentToken",
          "type": "address"
        }
      ],
      "name": "AuctionCreated",
      "type": "event"
    },
    {
      "anonymous": false,
      "inputs": [
        {
          "indexed": true,
          "internalType": "uint256",
          "name": "auctionId",
          "type": "uint256"
        },
        {
          "indexed": true,
          "internalType": "address",
          "name": "winner",
          "type": "address"
        },
        {
          "indexed": false,
          "internalType": "uint256",
          "name": "amount",
          "type": "uint256"
        },
        {
          "indexed": false,
          "internalType": "uint256",
          "name": "usdValue",
          "type": "uint256"
        },
        {
          "indexed": false,
          "internalType": "uint256",
          "name": "feeAmount",
          "type": "uint256"
        },
        {
          "indexed": false,
          "internalType": "uint256",
          "name": "feeBps",
          "type": "uint256"
        }
      ],
      "name": "AuctionEnded",
      "type": "event"
    },
    {
      "anonymous": false,
      "inputs": [
        {
          "indexed": true,
          "internalType": "address",
          "name": "beacon",
          "type": "address"
        }
      ],
      "name": "BeaconUpgraded",
      "type": "event"
    },
    {
      "anonymous": false,
      "inputs": [
        {
          "indexed": false,
          "internalType": "uint256",
          "name": "tiersCount",
          "type": "uint256"
        }
      ],
      "name": "FeeTiersUpdated",
      "type": "event"
    },
    {
      "anonymous": false,
      "inputs": [
        {
          "indexed": false,
          "internalType": "uint8",
          "name": "version",
          "type": "uint8"
        }
      ],
      "name": "Initialized",
      "type": "event"
    },
    {
      "anonymous": false,
      "inputs": [
        {
          "indexed": true,
          "internalType": "uint256",
          "name": "auctionId",
          "type": "uint256"
        },
        {
          "indexed": true,
          "internalType": "address",
          "name": "bidder",
          "type": "address"
        },
        {
          "indexed": false,
          "internalType": "uint256",
          "name": "amount",
          "type": "uint256"
        },
        {
          "indexed": false,
          "internalType": "uint256",
          "name": "usdValue",
          "type": "uint256"
        }
      ],
      "name": "NewBid",
      "type": "event"
    },
    {
      "anonymous": false,
      "inputs": [
        {
          "indexed": true,
          "internalType": "address",
          "name": "previousOwner",
          "type": "address"
        },
        {
          "indexed": true,
          "internalType": "address",
          "name": "newOwner",
          "type": "address"
        }
      ],
      "name": "OwnershipTransferred",
      "type": "event"
    },
    {
      "anonymous": false,
      "inputs": [
        {
          "indexed": true,
          "internalType": "address",
          "name": "implementation",
          "type": "address"
        }
      ],
      "name": "Upgraded",
      "type": "event"
    },
    {
      "inputs": [],
      "name": "auctionCount",
      "outputs": [
        {
          "internalType": "uint256",
          "name": "",
          "type": "uint256"
        }
      ],
      "stateMutability": "view",
      "type": "function"
    },
    {
      "inputs": [
        {
          "internalType": "uint256",
          "name": "",
          "type": "uint256"
        }
      ],
      "name": "auctions",
      "outputs": [
        {
          "internalType": "address",
          "name": "seller",
          "type": "address"
        },
        {
          "internalType": "address",
          "name": "nftContract",
          "type": "address"
        },
        {
          "internalType": "uint256",
          "name": "tokenId",
          "type": "uint256"
        },
        {
          "internalType": "uint256",
          "name": "startTime",
          "type": "uint256"
        },
        {
          "internalType": "uint256",
          "name": "endTime",
          "type": "uint256"
        },
        {
          "internalType": "uint256",
          "name": "startPrice",
          "type": "uint256"
        },
        {
          "internalType": "address",
          "name": "paymentToken",
          "type": "address"
        },
        {
          "internalType": "address",
          "name": "highestBidder",
          "type": "address"
        },
        {
          "internalType": "uint256",
          "name": "highestBid",
          "type": "uint256"
        },
        {
          "internalType": "bool",
          "name": "ended",
          "type": "bool"
        }
      ],
      "stateMutability": "view",
      "type": "function"
    },
    {
      "inputs": [
        {
          "internalType": "uint256",
          "name": "_auctionId",
          "type": "uint256"
        }
      ],
      "name": "bid",
      "outputs": [],
      "stateMutability": "payable",
      "type": "function"
    },
    {
      "inputs": [
        {
          "internalType": "uint256",
          "name": "_auctionId",
          "type": "uint256"
        },
        {
          "internalType": "uint256",
          "name": "_amount",
          "type": "uint256"
        }
      ],
      "name": "bidWithERC20",
      "outputs": [],
      "stateMutability": "nonpayable",
      "type": "function"
    },
    {
      "inputs": [
        {
          "internalType": "uint256",
          "name": "_auctionId",
          "type": "uint256"
        }
      ],
      "name": "calculatePlatformFee",
      "outputs": [
        {
          "internalType": "uint256",
          "name": "feeAmount",
          "type": "uint256"
        },
        {
          "internalType": "uint256",
          "name": "feeBps",
          "type": "uint256"
        }
      ],
      "stateMutability": "view",
      "type": "function"
    },
    {
      "inputs": [
        {
          "internalType": "address",
          "name": "_nftContract",
          "type": "address"
        },
        {
          "internalType": "uint256",
          "name": "_tokenId",
          "type": "uint256"
        },
        {
          "internalType": "uint256",
          "name": "_startPrice",
          "type": "uint256"
        },
        {
          "internalType": "uint256",
          "name": "_duration",
          "type": "uint256"
        },
        {
          "internalType": "address",
          "name": "_paymentToken",
          "type": "address"
        }
      ],
      "name": "createAuction",
      "outputs": [
        {
          "internalType": "uint256",
          "name": "",
          "type": "uint256"
        }
      ],
      "stateMutability": "nonpayable",
      "type": "function"
    },
    {
      "inputs": [],
      "name": "defaultPlatformFee",
      "outputs": [
        {
          "internalType": "uint256",
          "name": "",
          "type": "uint256"
        }
      ],
      "stateMutability": "view",
      "type": "function"
    },
    {
      "inputs": [
        {
          "internalType": "uint256",
          "name": "_auctionId",
          "type": "uint256"
        }
      ],
      "name": "emergencyCancel",
      "outputs": [],
      "stateMutability": "nonpayable",
      "type": "function"
    },
    {
      "inputs": [
        {
          "internalType": "uint256",
          "name": "_auctionId",
          "type": "uint256"
        }
      ],
      "name": "endAuction",
      "outputs": [],
      "stateMutability": "nonpayable",
      "type": "function"
    },
    {
      "inputs": [],
      "name": "feeRecipient",
      "outputs": [
        {
          "internalType": "address",
          "name": "",
          "type": "address"
        }
      ],
      "stateMutability": "view",
      "type": "function"
    },
    {
      "inputs": [
        {
          "internalType": "uint256",
          "name": "",
          "type": "uint256"
        }
      ],
      "name": "feeTiers",
      "outputs": [
        {
          "internalType": "uint256",
          "name": "minAmountUSD",
          "type": "uint256"
        },
        {
          "internalType": "uint256",
          "name": "maxAmountUSD",
          "type": "uint256"
        },
        {
          "internalType": "uint256",
          "name": "feeBps",
          "type": "uint256"
        }
      ],
      "stateMutability": "view",
      "type": "function"
    },
    {
      "inputs": [],
      "name": "getActiveAuctions",
      "outputs": [
        {
          "internalType": "uint256[]",
          "name": "",
          "type": "uint256[]"
        }
      ],
      "stateMutability": "view",
      "type": "function"
    },
    {
      "inputs": [
        {
          "internalType": "uint256",
          "name": "_auctionId",
          "type": "uint256"
        }
      ],
      "name": "getAuction",
      "outputs": [
        {
          "components": [
            {
              "internalType": "address",
              "name": "seller",
              "type": "address"
            },
            {
              "internalType": "address",
              "name": "nftContract",
              "type": "address"
            },
            {
              "internalType": "uint256",
              "name": "tokenId",
              "type": "uint256"
            },
            {
              "internalType": "uint256",
              "name": "startTime",
              "type": "uint256"
            },
            {
              "internalType": "uint256",
              "name": "endTime",
              "type": "uint256"
            },
            {
              "internalType": "uint256",
              "name": "startPrice",
              "type": "uint256"
            },
            {
              "internalType": "address",
              "name": "paymentToken",
              "type": "address"
            },
            {
              "internalType": "address",
              "name": "highestBidder",
              "type": "address"
            },
            {
              "internalType": "uint256",
              "name": "highestBid",
              "type": "uint256"
            },
            {
              "internalType": "bool",
              "name": "ended",
              "type": "bool"
            }
          ],
          "internalType": "struct NFTAuction.Auction",
          "name": "",
          "type": "tuple"
        }
      ],
      "stateMutability": "view",
      "type": "function"
    },
    {
      "inputs": [],
      "name": "getFeeTierCount",
      "outputs": [
        {
          "internalType": "uint256",
          "name": "",
          "type": "uint256"
        }
      ],
      "stateMutability": "view",
      "type": "function"
    },
    {
      "inputs": [],
      "name": "getFeeTiers",
      "outputs": [
        {
          "components": [
            {
              "internalType": "uint256",
              "name": "minAmountUSD",
              "type": "uint256"
            },
            {
              "internalType": "uint256",
              "name": "maxAmountUSD",
              "type": "uint256"
            },
            {
              "internalType": "uint256",
              "name": "feeBps",
              "type": "uint256"
            }
          ],
          "internalType": "struct NFTAuction.FeeTier[]",
          "name": "",
          "type": "tuple[]"
        }
      ],
      "stateMutability": "view",
      "type": "function"
    },
    {
      "inputs": [
        {
          "internalType": "address",
          "name": "_feeRecipient",
          "type": "address"
        },
        {
          "internalType": "address",
          "name": "_priceConsumer",
          "type": "address"
        }
      ],
      "name": "initialize",
      "outputs": [],
      "stateMutability": "nonpayable",
      "type": "function"
    },
    {
      "inputs": [],
      "name": "minUSDValue",
      "outputs": [
        {
          "internalType": "uint256",
          "name": "",
          "type": "uint256"
        }
      ],
      "stateMutability": "view",
      "type": "function"
    },
    {
      "inputs": [],
      "name": "owner",
      "outputs": [
        {
          "internalType": "address",
          "name": "",
          "type": "address"
        }
      ],
      "stateMutability": "view",
      "type": "function"
    },
    {
      "inputs": [],
      "name": "priceConsumer",
      "outputs": [
        {
          "internalType": "contract PriceConsumer",
          "name": "",
          "type": "address"
        }
      ],
      "stateMutability": "view",
      "type": "function"
    },
    {
      "inputs": [],
      "name": "proxiableUUID",
      "outputs": [
        {
          "internalType": "bytes32",
          "name": "",
          "type": "bytes32"
        }
      ],
      "stateMutability": "view",
      "type": "function"
    },
    {
      "inputs": [],
      "name": "renounceOwnership",
      "outputs": [],
      "stateMutability": "nonpayable",
      "type": "function"
    },
    {
      "inputs": [
        {
          "internalType": "uint256",
          "name": "_newFee",
          "type": "uint256"
        }
      ],
      "name": "setDefaultPlatformFee",
      "outputs": [],
      "stateMutability": "nonpayable",
      "type": "function"
    },
    {
      "inputs": [
        {
          "internalType": "address",
          "name": "_newRecipient",
          "type": "address"
        }
      ],
      "name": "setFeeRecipient",
      "outputs": [],
      "stateMutability": "nonpayable",
      "type": "function"
    },
    {
      "inputs": [
        {
          "components": [
            {
              "internalType": "uint256",
              "name": "minAmountUSD",
              "type": "uint256"
            },
            {
              "internalType": "uint256",
              "name": "maxAmountUSD",
              "type": "uint256"
            },
            {
              "internalType": "uint256",
              "name": "feeBps",
              "type": "uint256"
            }
          ],
          "internalType": "struct NFTAuction.FeeTier[]",
          "name": "_feeTiers",
          "type": "tuple[]"
        }
      ],
      "name": "setFeeTiers",
      "outputs": [],
      "stateMutability": "nonpayable",
      "type": "function"
    },
    {
      "inputs": [
        {
          "internalType": "uint256",
          "name": "_minUSDValue",
          "type": "uint256"
        }
      ],
      "name": "setMinUSDValue",
      "outputs": [],
      "stateMutability": "nonpayable",
      "type": "function"
    },
    {
      "inputs": [
        {
          "internalType": "address",
          "name": "newOwner",
          "type": "address"
        }
      ],
      "name": "transferOwnership",
      "outputs": [],
      "stateMutability": "nonpayable",
      "type": "function"
    },
    {
      "inputs": [
        {
          "internalType": "address",
          "name": "newImplementation",
          "type": "address"
        }
      ],
      "name": "upgradeTo",
      "outputs": [],
      "stateMutability": "nonpayable",
      "type": "function"
    },
    {
      "inputs": [
        {
          "internalType": "address",
          "name": "newImplementation",
          "type": "address"
        },
        {
          "internalType": "bytes",
          "name": "data",
          "type": "bytes"
        }
      ],
      "name": "upgradeToAndCall",
      "outputs": [],
      "stateMutability": "payable",
      "type": "function"
    },
    {
      "stateMutability": "payable",
      "type": "receive"
    }
  ],
  "bytecode": "0x60a060405230608052348015610013575f5ffd5b5061001c610021565b6100dd565b5f54610100900460ff161561008c5760405162461bcd60e51b815260206004820152602760248201527f496e697469616c697a61626c653a20636f6e747261637420697320696e697469604482015266616c697a696e6760c81b606482015260840160405180910390fd5b5f5460ff908116146100db575f805460ff191660ff9081179091556040519081527f7f26b83ff96e1f2b6a682f133852f6798a09c465da95921460cefb38474024989060200160405180910390a15b565b60805161302a6101115f395f8181610b4101528181610b8a015281816112ee0152818161132e01526113bb015261302a5ff3fe6080604052600436106101b2575f3560e01c80636da7c22c116100e7578063b9a2de3a11610087578063e74b981b11610062578063e74b981b1461065d578063e9a4d24f1461067c578063f2fde38b1461069d578063fdd950c1146106bc575f5ffd5b8063b9a2de3a146105fe578063cf44b5d51461061d578063dd75cd9b1461063e575f5ffd5b80638da5cb5b116100c25780638da5cb5b1461058d57806397fcd477146105aa578063b0b211da146105c0578063b8ca40d5146105df575f5ffd5b80636da7c22c14610456578063715018a61461046a57806378bd79351461047e575f5ffd5b8063461a758c116101525780634c73a44d1161012d5780634c73a44d146103315780634f1ef2861461035057806352d1902d14610363578063571a26a014610377575f5ffd5b8063461a758c146102bb57806346904840146102f3578063485cc95514610312575f5ffd5b8063230ed44a1161018d578063230ed44a1461023a5780632ad71573146102745780633659cfe614610289578063454a2ab3146102a8575f5ffd5b80630cbab4f7146101bd5780631c34212c146101f657806321f0485d14610219575f5ffd5b366101b957005b5f5ffd5b3480156101c8575f5ffd5b506101dc6101d736600461292c565b6106db565b604080519283526020830191909152015b60405180910390f35b348015610201575f5ffd5b5061020b60fe5481565b6040519081526020016101ed565b348015610224575f5ffd5b50610238610233366004612943565b6107f4565b005b348015610245575f5ffd5b5061025961025436600461292c565b610b06565b604080519384526020840192909252908201526060016101ed565b34801561027f575f5ffd5b5061020b60fd5481565b348015610294575f5ffd5b506102386102a336600461297e565b610b37565b6102386102b636600461292c565b610c1d565b3480156102c6575f5ffd5b50610100546102db906001600160a01b031681565b6040516001600160a01b0390911681526020016101ed565b3480156102fe575f5ffd5b5060ff546102db906001600160a01b031681565b34801561031d575f5ffd5b5061023861032c366004612997565b610e5c565b34801561033c575f5ffd5b5061023861034b366004612a36565b611131565b61023861035e366004612b07565b6112e4565b34801561036e575f5ffd5b5061020b6113af565b348015610382575f5ffd5b506103f561039136600461292c565b60fb6020525f908152604090208054600182015460028301546003840154600485015460058601546006870154600788015460088901546009909901546001600160a01b039889169997891698969795969495939492831693919092169160ff168a565b604080516001600160a01b039b8c168152998b1660208b01528901979097526060880195909552608087019390935260a0860191909152851660c085015290931660e0830152610100820192909252901515610120820152610140016101ed565b348015610461575f5ffd5b5060fc5461020b565b348015610475575f5ffd5b50610238611460565b348015610489575f5ffd5b5061058061049836600461292c565b60408051610140810182525f80825260208201819052918101829052606081018290526080810182905260a0810182905260c0810182905260e081018290526101008101829052610120810191909152505f90815260fb602090815260409182902082516101408101845281546001600160a01b03908116825260018301548116938201939093526002820154938101939093526003810154606084015260048101546080840152600581015460a08401526006810154821660c0840152600781015490911660e083015260088101546101008301526009015460ff16151561012082015290565b6040516101ed9190612bac565b348015610598575f5ffd5b506065546001600160a01b03166102db565b3480156105b5575f5ffd5b5061020b6101015481565b3480156105cb575f5ffd5b5061020b6105da366004612c5f565b611473565b3480156105ea575f5ffd5b506102386105f936600461292c565b6117bc565b348015610609575f5ffd5b5061023861061836600461292c565b6117ca565b348015610628575f5ffd5b50610631611d1b565b6040516101ed9190612cab565b348015610649575f5ffd5b5061023861065836600461292c565b611e3d565b348015610668575f5ffd5b5061023861067736600461297e565b612073565b348015610687575f5ffd5b506106906120c4565b6040516101ed9190612ced565b3480156106a8575f5ffd5b506102386106b736600461297e565b61213d565b3480156106c7575f5ffd5b506102386106d636600461292c565b6121b3565b5f81815260fb6020526040812060078101548291906001600160a01b031661070857505f93849350915050565b60068101545f906001600160a01b031615610739576006820154610734906001600160a01b03166121e3565b61073c565b60125b6101005460088401546006850154604051630f09faf760e21b81529394505f936001600160a01b0393841693633c27ebdc936107819390929116908790600401612d40565b602060405180830381865afa15801561079c573d5f5f3e3d5ffd5b505050506040513d601f19601f820116820180604052508101906107c09190612d62565b90506107cb816122a4565b93506127108484600801546107e09190612d8d565b6107ea9190612da4565b9450505050915091565b6107fc612358565b5f82815260fb60205260409020600981015460ff161561082f5760405163dda144a560e01b815260040160405180910390fd5b8060030154421015610854576040516301dff5d560e71b815260040160405180910390fd5b80600401544211156108795760405163dda144a560e01b815260040160405180910390fd5b8060080154821161089d57604051635069375b60e11b815260040160405180910390fd5b60068101546001600160a01b03166108c8576040516356e7ec5f60e01b815260040160405180910390fd5b60068101546040516323b872dd60e01b81526001600160a01b03909116906323b872dd906108fe90339030908790600401612dc3565b6020604051808303815f875af1925050508015610938575060408051601f3d908101601f1916820190925261093591810190612de7565b60015b610955576040516312171d8360e31b815260040160405180910390fd5b5060078101546001600160a01b031615610a025760068101546007820154600883015460405163a9059cbb60e01b81526001600160a01b039283166004820152602481019190915291169063a9059cbb906044016020604051808303815f875af19250505080156109e3575060408051601f3d908101601f191682019092526109e091810190612de7565b60015b610a0057604051633c31275160e21b815260040160405180910390fd5b505b6007810180546001600160a01b031916331790556008810182905560068101545f90610a36906001600160a01b03166121e3565b610100546006840154604051630f09faf760e21b81529293505f926001600160a01b0392831692633c27ebdc92610a77928992909116908790600401612d40565b602060405180830381865afa158015610a92573d5f5f3e3d5ffd5b505050506040513d601f19601f82011682018060405250810190610ab69190612d62565b6040805186815260208101839052919250339187917fcde18333b910a25ba5421e992ecee5c314e557346e94ab2ab424658bbb3707e6910160405180910390a3505050610b0260018055565b5050565b60fc8181548110610b15575f80fd5b5f91825260209091206003909102018054600182015460029092015490925083565b6001600160a01b037f0000000000000000000000000000000000000000000000000000000000000000163003610b885760405162461bcd60e51b8152600401610b7f90612e0d565b60405180910390fd5b7f00000000000000000000000000000000000000000000000000000000000000006001600160a01b0316610bd05f516020612fae5f395f51905f52546001600160a01b031690565b6001600160a01b031614610bf65760405162461bcd60e51b8152600401610b7f90612e59565b610bff816123b7565b604080515f80825260208201909252610c1a918391906123bf565b50565b610c25612358565b5f81815260fb60205260409020600981015460ff1615610c585760405163dda144a560e01b815260040160405180910390fd5b8060030154421015610c7d576040516301dff5d560e71b815260040160405180910390fd5b8060040154421115610ca25760405163dda144a560e01b815260040160405180910390fd5b80600801543411610cc657604051635069375b60e11b815260040160405180910390fd5b60068101546001600160a01b031615610cf2576040516356e7ec5f60e01b815260040160405180910390fd5b60078101546001600160a01b031615610d7e57600781015460088201546040515f926001600160a01b031691908381818185875af1925050503d805f8114610d55576040519150601f19603f3d011682016040523d82523d5f602084013e610d5a565b606091505b5050905080610d7c57604051633c31275160e21b815260040160405180910390fd5b505b6007810180546001600160a01b03191633179055346008820181905561010054604051630f09faf760e21b81525f926001600160a01b039290921691633c27ebdc91610dd291908590601290600401612d40565b602060405180830381865afa158015610ded573d5f5f3e3d5ffd5b505050506040513d601f19601f82011682018060405250810190610e119190612d62565b6040805134815260208101839052919250339185917fcde18333b910a25ba5421e992ecee5c314e557346e94ab2ab424658bbb3707e6910160405180910390a35050610c1a60018055565b5f54610100900460ff1615808015610e7a57505f54600160ff909116105b80610e935750303b158015610e9357505f5460ff166001145b610ef65760405162461bcd60e51b815260206004820152602e60248201527f496e697469616c697a61626c653a20636f6e747261637420697320616c72656160448201526d191e481a5b9a5d1a585b1a5e995960921b6064820152608401610b7f565b5f805460ff191660011790558015610f17575f805461ff0019166101001790555b610f1f612529565b610f27612557565b610f2f612585565b60ff80546001600160a01b038086166001600160a01b03199283161790925561010080549285169290911691909117905560c860fe819055633b9aca006101015560408051606080820183525f80835264174876e80060208085018281526101f486880190815260fc805460018181018355828852985160039182027f371f36870d18f32a11fea0f144b021c8b407bb50f8e0267c711123f454b963c08181019290925594517f371f36870d18f32a11fea0f144b021c8b407bb50f8e0267c711123f454b963c18087019190915593517f371f36870d18f32a11fea0f144b021c8b407bb50f8e0267c711123f454b963c2958601558a51808a018c5296875264e8d4a5100087870181815261012c898e019081528554808e018755868c5299519985028085019a909a5590518987015551978601979097558a51808a018c529687526509184e72a000878701818152888d019d8e528454808d018655858b5298519884028084019990995551888601559b519685019690965589519788018a529987525f19938701938452606498870198895280549788018155909452935194909602908101939093559351938201939093559051910155801561112c575f805461ff0019169055604051600181527f7f26b83ff96e1f2b6a682f133852f6798a09c465da95921460cefb38474024989060200160405180910390a15b505050565b6111396125ab565b61114460fc5f6128ee565b5f5b81518110156112a6576103e882828151811061116457611164612ea5565b602002602001015160400151111561118f5760405163cd4e616760e01b815260040160405180910390fd5b8181815181106111a1576111a1612ea5565b6020026020010151602001518282815181106111bf576111bf612ea5565b60200260200101515f0151106111e857604051634b631f8f60e11b815260040160405180910390fd5b801561125257816111fa600183612eb9565b8151811061120a5761120a612ea5565b60200260200101516020015182828151811061122857611228612ea5565b60200260200101515f0151101561125257604051634b631f8f60e11b815260040160405180910390fd5b60fc82828151811061126657611266612ea5565b6020908102919091018101518254600181810185555f94855293839020825160039092020190815591810151828401556040015160029091015501611146565b507fb807898c58794da505f06bb37cc1731747332472defb01e6ef3ae651c04f6e9681516040516112d991815260200190565b60405180910390a150565b6001600160a01b037f000000000000000000000000000000000000000000000000000000000000000016300361132c5760405162461bcd60e51b8152600401610b7f90612e0d565b7f00000000000000000000000000000000000000000000000000000000000000006001600160a01b03166113745f516020612fae5f395f51905f52546001600160a01b031690565b6001600160a01b03161461139a5760405162461bcd60e51b8152600401610b7f90612e59565b6113a3826123b7565b610b02828260016123bf565b5f306001600160a01b037f0000000000000000000000000000000000000000000000000000000000000000161461144e5760405162461bcd60e51b815260206004820152603860248201527f555550535570677261646561626c653a206d757374206e6f742062652063616c60448201527f6c6564207468726f7567682064656c656761746563616c6c00000000000000006064820152608401610b7f565b505f516020612fae5f395f51905f5290565b6114686125ab565b6114715f612605565b565b5f61147c612358565b835f0361149c57604051630fbc961960e31b815260040160405180910390fd5b603c8310156114be576040516325c3636760e01b815260040160405180910390fd5b62278d008311156114e257604051634a94fa8360e11b815260040160405180910390fd5b6001600160a01b0386166115095760405163e6c4247b60e01b815260040160405180910390fd5b610100546040516322ab234560e01b81526001600160a01b038481166004830152909116906322ab234590602401602060405180830381865afa158015611552573d5f5f3e3d5ffd5b505050506040513d601f19601f820116820180604052508101906115769190612de7565b61159357604051637e68a04560e01b815260040160405180910390fd5b6040516323b872dd60e01b81526001600160a01b038716906323b872dd906115c390339030908a90600401612dc3565b5f604051808303815f87803b1580156115da575f5ffd5b505af19250505080156115eb575060015b611608576040516312171d8360e31b815260040160405180910390fd5b60fd80545f918261161883612ecc565b919050559050604051806101400160405280336001600160a01b03168152602001886001600160a01b0316815260200187815260200142815260200185426116609190612ee4565b815260208082018890526001600160a01b038681166040808501919091525f606080860182905260808087018d905260a096870183905288835260fb865291839020875181546001600160a01b03199081169187169190911782559588015160018201805488169187169190911790559287015160028401558601516003830155850151600482015592840151600584015560c0840151600684018054841691831691909117905560e0840151600784018054909316908216179091556101008301516008830155610120909201516009909101805460ff1916911515919091179055871633827ff945d05980306495bcd83f24e135d89a9b484f5176423e455b1edc7316c2bd3489426117748a82612ee4565b60408051938452602084019290925290820152606081018a90526001600160a01b038816608082015260a00160405180910390a490506117b360018055565b95945050505050565b6117c46125ab565b61010155565b6117d2612358565b5f81815260fb60205260409020600981015460ff16156118055760405163d02e774d60e01b815260040160405180910390fd5b80600401544211611829576040516301dff5d560e71b815260040160405180910390fd5b80546001600160a01b0316331480159061184e57506065546001600160a01b03163314155b1561186c5760405163ea8e4eb560e01b815260040160405180910390fd5b60098101805460ff1916600117905560078101546001600160a01b031615611c63575f5f611899846106db565b915091505f8284600801546118ae9190612eb9565b60068501549091506001600160a01b031661199b5783546040515f916001600160a01b03169083908381818185875af1925050503d805f811461190c576040519150601f19603f3d011682016040523d82523d5f602084013e611911565b606091505b505060ff546040519192505f916001600160a01b039091169086908381818185875af1925050503d805f8114611962576040519150601f19603f3d011682016040523d82523d5f602084013e611967565b606091505b50509050811580611976575080155b15611994576040516312171d8360e31b815260040160405180910390fd5b5050611abb565b6006840154845460405163a9059cbb60e01b81526001600160a01b0391821660048201526024810184905291169063a9059cbb906044016020604051808303815f875af1925050508015611a0c575060408051601f3d908101601f19168201909252611a0991810190612de7565b60015b611a29576040516312171d8360e31b815260040160405180910390fd5b50600684015460ff5460405163a9059cbb60e01b81526001600160a01b0391821660048201526024810186905291169063a9059cbb906044016020604051808303815f875af1925050508015611a9c575060408051601f3d908101601f19168201909252611a9991810190612de7565b60015b611ab9576040516312171d8360e31b815260040160405180910390fd5b505b600184015460078501546002860154604051632142170760e11b81526001600160a01b03938416936342842e0e93611afc9330939290911691600401612dc3565b5f604051808303815f87803b158015611b13575f5ffd5b505af1925050508015611b24575060015b611b41576040516312171d8360e31b815260040160405180910390fd5b60068401545f906001600160a01b031615611b72576006850154611b6d906001600160a01b03166121e3565b611b75565b60125b6101005460088701546006880154604051630f09faf760e21b81529394505f936001600160a01b0393841693633c27ebdc93611bba9390929116908790600401612d40565b602060405180830381865afa158015611bd5573d5f5f3e3d5ffd5b505050506040513d601f19601f82011682018060405250810190611bf99190612d62565b6007870154600888015460408051918252602082018490528101889052606081018790529192506001600160a01b03169088907f8f42b75cb57da15e3c69a094187024758c907add62b9407e853a9eb4efd8e7499060800160405180910390a35050505050611d11565b600181015481546002830154604051632142170760e11b81526001600160a01b03938416936342842e0e93611ca19330939290911691600401612dc3565b5f604051808303815f87803b158015611cb8575f5ffd5b505af1925050508015611cc9575060015b611ce6576040516312171d8360e31b815260040160405180910390fd5b60405182907f2809c7e17bf978fbc7194c0a694b638c4215e9140cacc6c38ca36010b45697df905f90a25b50610c1a60018055565b60605f805b60fd54811015611d76575f81815260fb602052604090206009015460ff16158015611d5b57505f81815260fb60205260409020600401544211155b15611d6e5781611d6a81612ecc565b9250505b600101611d20565b505f8167ffffffffffffffff811115611d9157611d916129c8565b604051908082528060200260200182016040528015611dba578160200160208202803683370190505b5090505f805b60fd54811015611e34575f81815260fb602052604090206009015460ff16158015611dfb57505f81815260fb60205260409020600401544211155b15611e2c5780838381518110611e1357611e13612ea5565b602090810291909101015281611e2881612ecc565b9250505b600101611dc0565b50909392505050565b611e456125ab565b5f81815260fb60205260409020600981015460ff1615611e785760405163d02e774d60e01b815260040160405180910390fd5b60098101805460ff1916600117905560078101546001600160a01b031615611fc25760068101546001600160a01b0316611f2957600781015460088201546040515f926001600160a01b031691908381818185875af1925050503d805f8114611efc576040519150601f19603f3d011682016040523d82523d5f602084013e611f01565b606091505b5050905080611f2357604051633c31275160e21b815260040160405180910390fd5b50611fc2565b60068101546007820154600883015460405163a9059cbb60e01b81526001600160a01b039283166004820152602481019190915291169063a9059cbb906044016020604051808303815f875af1925050508015611fa3575060408051601f3d908101601f19168201909252611fa091810190612de7565b60015b611fc057604051633c31275160e21b815260040160405180910390fd5b505b600181015481546002830154604051632142170760e11b81526001600160a01b03938416936342842e0e936120009330939290911691600401612dc3565b5f604051808303815f87803b158015612017575f5ffd5b505af1925050508015612028575060015b612045576040516312171d8360e31b815260040160405180910390fd5b60405182907f2809c7e17bf978fbc7194c0a694b638c4215e9140cacc6c38ca36010b45697df905f90a25050565b61207b6125ab565b6001600160a01b0381166120a25760405163e6c4247b60e01b815260040160405180910390fd5b60ff80546001600160a01b0319166001600160a01b0392909216919091179055565b606060fc805480602002602001604051908101604052809291908181526020015f905b82821015612134578382905f5260205f2090600302016040518060600160405290815f820154815260200160018201548152602001600282015481525050815260200190600101906120e7565b50505050905090565b6121456125ab565b6001600160a01b0381166121aa5760405162461bcd60e51b815260206004820152602660248201527f4f776e61626c653a206e6577206f776e657220697320746865207a65726f206160448201526564647265737360d01b6064820152608401610b7f565b610c1a81612605565b6121bb6125ab565b6103e88111156121de5760405163cd4e616760e01b815260040160405180910390fd5b60fe55565b60408051600481526024810182526020810180516001600160e01b031663313ce56760e01b17905290515f91829182916001600160a01b038616916122289190612ef7565b5f60405180830381855afa9150503d805f8114612260576040519150601f19603f3d011682016040523d82523d5f602084013e612265565b606091505b509150915081801561227957506020815110155b1561229a57808060200190518101906122929190612f0d565b949350505050565b5060129392505050565b5f610101548210156122b857505060fe5490565b5f5b60fc5481101561234e5760fc81815481106122d7576122d7612ea5565b905f5260205f2090600302015f01548310158015612316575060fc818154811061230357612303612ea5565b905f5260205f2090600302016001015483105b156123465760fc818154811061232e5761232e612ea5565b905f5260205f20906003020160020154915050919050565b6001016122ba565b505060fe54919050565b6002600154036123aa5760405162461bcd60e51b815260206004820152601f60248201527f5265656e7472616e637947756172643a207265656e7472616e742063616c6c006044820152606401610b7f565b6002600155565b60018055565b610c1a6125ab565b7f4910fdfa16fed3260ed0e7147f7cc6da11a60208b5b9406d12a635614ffd91435460ff16156123f25761112c83612656565b826001600160a01b03166352d1902d6040518163ffffffff1660e01b8152600401602060405180830381865afa92505050801561244c575060408051601f3d908101601f1916820190925261244991810190612d62565b60015b6124af5760405162461bcd60e51b815260206004820152602e60248201527f45524331393637557067726164653a206e657720696d706c656d656e7461746960448201526d6f6e206973206e6f74205555505360901b6064820152608401610b7f565b5f516020612fae5f395f51905f52811461251d5760405162461bcd60e51b815260206004820152602960248201527f45524331393637557067726164653a20756e737570706f727465642070726f786044820152681a58589b195555525160ba1b6064820152608401610b7f565b5061112c8383836126f1565b5f54610100900460ff1661254f5760405162461bcd60e51b8152600401610b7f90612f2d565b61147161271b565b5f54610100900460ff1661257d5760405162461bcd60e51b8152600401610b7f90612f2d565b611471612741565b5f54610100900460ff166114715760405162461bcd60e51b8152600401610b7f90612f2d565b6065546001600160a01b031633146114715760405162461bcd60e51b815260206004820181905260248201527f4f776e61626c653a2063616c6c6572206973206e6f7420746865206f776e65726044820152606401610b7f565b606580546001600160a01b038381166001600160a01b0319831681179093556040519116919082907f8be0079c531659141344cd1fd0a4f28419497f9722a3daafe3b4186f6b6457e0905f90a35050565b6001600160a01b0381163b6126c35760405162461bcd60e51b815260206004820152602d60248201527f455243313936373a206e657720696d706c656d656e746174696f6e206973206e60448201526c1bdd08184818dbdb9d1c9858dd609a1b6064820152608401610b7f565b5f516020612fae5f395f51905f5280546001600160a01b0319166001600160a01b0392909216919091179055565b6126fa83612770565b5f825111806127065750805b1561112c5761271583836127af565b50505050565b5f54610100900460ff166123b15760405162461bcd60e51b8152600401610b7f90612f2d565b5f54610100900460ff166127675760405162461bcd60e51b8152600401610b7f90612f2d565b61147133612605565b61277981612656565b6040516001600160a01b038216907fbc7cd75a20ee27fd9adebab32041f755214dbc6bffa90cc0225b39da2e5c2d3b905f90a250565b60606127d48383604051806060016040528060278152602001612fce602791396127dd565b90505b92915050565b60605f5f856001600160a01b0316856040516127f99190612ef7565b5f60405180830381855af49150503d805f8114612831576040519150601f19603f3d011682016040523d82523d5f602084013e612836565b606091505b509150915061284786838387612851565b9695505050505050565b606083156128bf5782515f036128b8576001600160a01b0385163b6128b85760405162461bcd60e51b815260206004820152601d60248201527f416464726573733a2063616c6c20746f206e6f6e2d636f6e74726163740000006044820152606401610b7f565b5081612292565b61229283838151156128d45781518083602001fd5b8060405162461bcd60e51b8152600401610b7f9190612f78565b5080545f8255600302905f5260205f2090810190610c1a91905b80821115612928575f808255600182018190556002820155600301612908565b5090565b5f6020828403121561293c575f5ffd5b5035919050565b5f5f60408385031215612954575f5ffd5b50508035926020909101359150565b80356001600160a01b0381168114612979575f5ffd5b919050565b5f6020828403121561298e575f5ffd5b6127d482612963565b5f5f604083850312156129a8575f5ffd5b6129b183612963565b91506129bf60208401612963565b90509250929050565b634e487b7160e01b5f52604160045260245ffd5b6040516060810167ffffffffffffffff811182821017156129ff576129ff6129c8565b60405290565b604051601f8201601f1916810167ffffffffffffffff81118282101715612a2e57612a2e6129c8565b604052919050565b5f60208284031215612a46575f5ffd5b813567ffffffffffffffff811115612a5c575f5ffd5b8201601f81018413612a6c575f5ffd5b803567ffffffffffffffff811115612a8657612a866129c8565b612a9560208260051b01612a05565b80828252602082019150602060608402850101925086831115612ab6575f5ffd5b6020840193505b828410156128475760608488031215612ad4575f5ffd5b612adc6129dc565b8435815260208086013581830152604080870135908301529083526060909401939190910190612abd565b5f5f60408385031215612b18575f5ffd5b612b2183612963565b9150602083013567ffffffffffffffff811115612b3c575f5ffd5b8301601f81018513612b4c575f5ffd5b803567ffffffffffffffff811115612b6657612b666129c8565b612b79601f8201601f1916602001612a05565b818152866020838501011115612b8d575f5ffd5b816020840160208301375f602083830101528093505050509250929050565b81516001600160a01b0316815261014081016020830151612bd860208401826001600160a01b03169052565b5060408301516040830152606083015160608301526080830151608083015260a083015160a083015260c0830151612c1b60c08401826001600160a01b03169052565b5060e0830151612c3660e08401826001600160a01b03169052565b50610100830151610100830152610120830151612c5861012084018215159052565b5092915050565b5f5f5f5f5f60a08688031215612c73575f5ffd5b612c7c86612963565b9450602086013593506040860135925060608601359150612c9f60808701612963565b90509295509295909350565b602080825282518282018190525f918401906040840190835b81811015612ce2578351835260209384019390920191600101612cc4565b509095945050505050565b602080825282518282018190525f918401906040840190835b81811015612ce257835180518452602081015160208501526040810151604085015250606083019250602084019350600181019050612d06565b9283526001600160a01b0391909116602083015260ff16604082015260600190565b5f60208284031215612d72575f5ffd5b5051919050565b634e487b7160e01b5f52601160045260245ffd5b80820281158282048414176127d7576127d7612d79565b5f82612dbe57634e487b7160e01b5f52601260045260245ffd5b500490565b6001600160a01b039384168152919092166020820152604081019190915260600190565b5f60208284031215612df7575f5ffd5b81518015158114612e06575f5ffd5b9392505050565b6020808252602c908201527f46756e6374696f6e206d7573742062652063616c6c6564207468726f7567682060408201526b19195b1959d85d1958d85b1b60a21b606082015260800190565b6020808252602c908201527f46756e6374696f6e206d7573742062652063616c6c6564207468726f7567682060408201526b6163746976652070726f787960a01b606082015260800190565b634e487b7160e01b5f52603260045260245ffd5b818103818111156127d7576127d7612d79565b5f60018201612edd57612edd612d79565b5060010190565b808201808211156127d7576127d7612d79565b5f82518060208501845e5f920191825250919050565b5f60208284031215612f1d575f5ffd5b815160ff81168114612e06575f5ffd5b6020808252602b908201527f496e697469616c697a61626c653a20636f6e7472616374206973206e6f74206960408201526a6e697469616c697a696e6760a81b606082015260800190565b602081525f82518060208401528060208501604085015e5f604082850101526040601f19601f8301168401019150509291505056fe360894a13ba1a3210667c828492db98dca3e2076cc3735a920a3ca505d382bbc416464726573733a206c6f772d6c6576656c2064656c65676174652063616c6c206661696c6564a26469706673582212205067aa62f9a85e1debcce6649fefa2c01ef2d10568b0b0323dd265716a050f5964736f6c634300081c0033",
  "linkReferences": {},
  "deployedLinkReferences": {},
  "immutableReferences": {
    "733": [
      {
        "length": 32,
        "start": 2881
      },
      {
        "length": 32,
        "start": 2954
      },
      {
        "length": 32,
        "start": 4846
      },
      {
        "length": 32,
        "start": 4910
      },
      {
        "length": 32,
        "start": 5051
      }
    ]
  },
  "inputSourceName": "project/contracts/jobThree/NFTAuction.sol",
  "buildInfoId": "solc-0_8_28-7e23bb7a47d5964eeaa453c47612f343c5c45bdf"
}