{
  "_format": "hh3-artifact-1",
  "contractName": "Bank",
  "sourceName": "contracts/study/ReentrancyAttack.sol",
  "abi": [
    {
      "inputs": [
        {
          "internalType": "address",
          "name": "",
          "type": "address"
        }
      ],
      "name": "balanceOf",
      "outputs": [
        {
          "internalType": "uint256",
          "name": "",
          "type": "uint256"
        }
      ],
      "stateMutability": "view",
      "type": "function"
    },
    {
      "inputs": [],
      "name": "deposit",
      "outputs": [],
      "stateMutability": "payable",
      "type": "function"
    },
    {
      "inputs": [],
      "name": "getBalance",
      "outputs": [
        {
          "internalType": "uint256",
          "name": "",
          "type": "uint256"
        }
      ],
      "stateMutability": "view",
      "type": "function"
    },
    {
      "inputs": [],
      "name": "withdraw",
      "outputs": [],
      "stateMutability": "nonpayable",
      "type": "function"
    }
  ],
  "bytecode": "0x6080604052348015600e575f5ffd5b5061024f8061001c5f395ff3fe60806040526004361061003e575f3560e01c806312065fe0146100425780633ccfd60b1461006257806370a0823114610078578063d0e30db0146100a3575b5f5ffd5b34801561004d575f5ffd5b50475b60405190815260200160405180910390f35b34801561006d575f5ffd5b506100766100ab565b005b348015610083575f5ffd5b506100506100923660046101c7565b5f6020819052908152604090205481565b6100766101a2565b335f90815260208190526040902054806101035760405162461bcd60e51b8152602060048201526014602482015273496e73756666696369656e742062616c616e636560601b60448201526064015b60405180910390fd5b6040515f90339083908381818185875af1925050503d805f8114610142576040519150601f19603f3d011682016040523d82523d5f602084013e610147565b606091505b505090508061018f5760405162461bcd60e51b81526020600482015260146024820152732330b4b632b2103a379039b2b7321022ba3432b960611b60448201526064016100fa565b5050335f90815260208190526040812055565b335f90815260208190526040812080543492906101c09084906101f4565b9091555050565b5f602082840312156101d7575f5ffd5b81356001600160a01b03811681146101ed575f5ffd5b9392505050565b8082018082111561021357634e487b7160e01b5f52601160045260245ffd5b9291505056fea2646970667358221220a8ffd983789af3035544d2cc8861debb7f750221d49535d594d8d02d35e3c21a64736f6c634300081c0033",
  "linkReferences": {},
  "deployedLinkReferences": {},
  "immutableReferences": {},
  "inputSourceName": "project/contracts/study/ReentrancyAttack.sol",
  "buildInfoId": "solc-0_8_28-7d7f2cca6187009072259667f9e71d8dbc9b97e0"
}