{
  "_format": "hh3-artifact-1",
  "contractName": "SimpleERC20",
  "sourceName": "contracts/jobTwo/SimpleERC20.sol",
  "abi": [
    {
      "inputs": [
        {
          "internalType": "string",
          "name": "_name",
          "type": "string"
        },
        {
          "internalType": "string",
          "name": "_symbol",
          "type": "string"
        },
        {
          "internalType": "uint8",
          "name": "_decimals",
          "type": "uint8"
        },
        {
          "internalType": "uint256",
          "name": "_initialSupply",
          "type": "uint256"
        }
      ],
      "stateMutability": "nonpayable",
      "type": "constructor"
    },
    {
      "anonymous": false,
      "inputs": [
        {
          "indexed": true,
          "internalType": "address",
          "name": "owner",
          "type": "address"
        },
        {
          "indexed": true,
          "internalType": "address",
          "name": "spender",
          "type": "address"
        },
        {
          "indexed": false,
          "internalType": "uint256",
          "name": "value",
          "type": "uint256"
        }
      ],
      "name": "Approval",
      "type": "event"
    },
    {
      "anonymous": false,
      "inputs": [
        {
          "indexed": true,
          "internalType": "address",
          "name": "to",
          "type": "address"
        },
        {
          "indexed": false,
          "internalType": "uint256",
          "name": "value",
          "type": "uint256"
        }
      ],
      "name": "Mint",
      "type": "event"
    },
    {
      "anonymous": false,
      "inputs": [
        {
          "indexed": true,
          "internalType": "address",
          "name": "from",
          "type": "address"
        },
        {
          "indexed": true,
          "internalType": "address",
          "name": "to",
          "type": "address"
        },
        {
          "indexed": false,
          "internalType": "uint256",
          "name": "value",
          "type": "uint256"
        }
      ],
      "name": "Transfer",
      "type": "event"
    },
    {
      "inputs": [
        {
          "internalType": "address",
          "name": "_owner",
          "type": "address"
        },
        {
          "internalType": "address",
          "name": "_spender",
          "type": "address"
        }
      ],
      "name": "allowance",
      "outputs": [
        {
          "internalType": "uint256",
          "name": "",
          "type": "uint256"
        }
      ],
      "stateMutability": "view",
      "type": "function"
    },
    {
      "inputs": [
        {
          "internalType": "address",
          "name": "spender",
          "type": "address"
        },
        {
          "internalType": "uint256",
          "name": "value",
          "type": "uint256"
        }
      ],
      "name": "approve",
      "outputs": [
        {
          "internalType": "bool",
          "name": "",
          "type": "bool"
        }
      ],
      "stateMutability": "nonpayable",
      "type": "function"
    },
    {
      "inputs": [
        {
          "internalType": "address",
          "name": "account",
          "type": "address"
        }
      ],
      "name": "balanceOf",
      "outputs": [
        {
          "internalType": "uint256",
          "name": "",
          "type": "uint256"
        }
      ],
      "stateMutability": "view",
      "type": "function"
    },
    {
      "inputs": [],
      "name": "decimals",
      "outputs": [
        {
          "internalType": "uint8",
          "name": "",
          "type": "uint8"
        }
      ],
      "stateMutability": "view",
      "type": "function"
    },
    {
      "inputs": [
        {
          "internalType": "address",
          "name": "to",
          "type": "address"
        },
        {
          "internalType": "uint256",
          "name": "value",
          "type": "uint256"
        }
      ],
      "name": "mint",
      "outputs": [],
      "stateMutability": "nonpayable",
      "type": "function"
    },
    {
      "inputs": [],
      "name": "name",
      "outputs": [
        {
          "internalType": "string",
          "name": "",
          "type": "string"
        }
      ],
      "stateMutability": "view",
      "type": "function"
    },
    {
      "inputs": [],
      "name": "owner",
      "outputs": [
        {
          "internalType": "address",
          "name": "",
          "type": "address"
        }
      ],
      "stateMutability": "view",
      "type": "function"
    },
    {
      "inputs": [],
      "name": "symbol",
      "outputs": [
        {
          "internalType": "string",
          "name": "",
          "type": "string"
        }
      ],
      "stateMutability": "view",
      "type": "function"
    },
    {
      "inputs": [],
      "name": "totalSupply",
      "outputs": [
        {
          "internalType": "uint256",
          "name": "",
          "type": "uint256"
        }
      ],
      "stateMutability": "view",
      "type": "function"
    },
    {
      "inputs": [
        {
          "internalType": "address",
          "name": "to",
          "type": "address"
        },
        {
          "internalType": "uint256",
          "name": "value",
          "type": "uint256"
        }
      ],
      "name": "transfer",
      "outputs": [
        {
          "internalType": "bool",
          "name": "",
          "type": "bool"
        }
      ],
      "stateMutability": "nonpayable",
      "type": "function"
    },
    {
      "inputs": [
        {
          "internalType": "address",
          "name": "from",
          "type": "address"
        },
        {
          "internalType": "address",
          "name": "to",
          "type": "address"
        },
        {
          "internalType": "uint256",
          "name": "value",
          "type": "uint256"
        }
      ],
      "name": "transferFrom",
      "outputs": [
        {
          "internalType": "bool",
          "name": "",
          "type": "bool"
        }
      ],
      "stateMutability": "nonpayable",
      "type": "function"
    },
    {
      "inputs": [
        {
          "internalType": "address",
          "name": "newOwner",
          "type": "address"
        }
      ],
      "name": "transferOwnership",
      "outputs": [],
      "stateMutability": "nonpayable",
      "type": "function"
    }
  ],
  "bytecode": "0x608060405234801561000f575f5ffd5b50604051610f20380380610f2083398101604081905261002e91610239565b5f6100398582610340565b5060016100468482610340565b506002805460ff841660ff199091168117909155600480546001600160a01b0319163390811790915561008d9161007e90600a6104f3565b6100889084610508565b610096565b50505050610532565b6001600160a01b0382166100f05760405162461bcd60e51b815260206004820152601f60248201527f45524332303a206d696e7420746f20746865207a65726f206164647265737300604482015260640160405180910390fd5b8060035f828254610101919061051f565b90915550506001600160a01b0382165f818152600560209081526040808320805486019055518481527fddf252ad1be2c89b69c2b068fc378daa952ba7f163c4a11628f55a4df523b3ef910160405180910390a3816001600160a01b03167f0f6798a560793a54c3bcfe86a93cde1e73087d944c0ea20544137d41213968858260405161019091815260200190565b60405180910390a25050565b634e487b7160e01b5f52604160045260245ffd5b5f82601f8301126101bf575f5ffd5b81516001600160401b038111156101d8576101d861019c565b604051601f8201601f19908116603f011681016001600160401b03811182821017156102065761020661019c565b60405281815283820160200185101561021d575f5ffd5b8160208501602083015e5f918101602001919091529392505050565b5f5f5f5f6080858703121561024c575f5ffd5b84516001600160401b03811115610261575f5ffd5b61026d878288016101b0565b602087015190955090506001600160401b0381111561028a575f5ffd5b610296878288016101b0565b935050604085015160ff811681146102ac575f5ffd5b6060959095015193969295505050565b600181811c908216806102d057607f821691505b6020821081036102ee57634e487b7160e01b5f52602260045260245ffd5b50919050565b601f82111561033b57805f5260205f20601f840160051c810160208510156103195750805b601f840160051c820191505b81811015610338575f8155600101610325565b50505b505050565b81516001600160401b038111156103595761035961019c565b61036d8161036784546102bc565b846102f4565b6020601f82116001811461039f575f83156103885750848201515b5f19600385901b1c1916600184901b178455610338565b5f84815260208120601f198516915b828110156103ce57878501518255602094850194600190920191016103ae565b50848210156103eb57868401515f19600387901b60f8161c191681555b50505050600190811b01905550565b634e487b7160e01b5f52601160045260245ffd5b6001815b60018411156104495780850481111561042d5761042d6103fa565b600184161561043b57908102905b60019390931c928002610412565b935093915050565b5f8261045f575060016104ed565b8161046b57505f6104ed565b8160018114610481576002811461048b576104a7565b60019150506104ed565b60ff84111561049c5761049c6103fa565b50506001821b6104ed565b5060208310610133831016604e8410600b84101617156104ca575081810a6104ed565b6104d65f19848461040e565b805f19048211156104e9576104e96103fa565b0290505b92915050565b5f61050160ff841683610451565b9392505050565b80820281158282048414176104ed576104ed6103fa565b808201808211156104ed576104ed6103fa565b6109e18061053f5f395ff3fe608060405234801561000f575f5ffd5b50600436106100b1575f3560e01c806370a082311161006e57806370a08231146101545780638da5cb5b1461017c57806395d89b41146101a7578063a9059cbb146101af578063dd62ed3e146101c2578063f2fde38b146101fa575f5ffd5b806306fdde03146100b5578063095ea7b3146100d357806318160ddd146100f657806323b872dd1461010d578063313ce5671461012057806340c10f191461013f575b5f5ffd5b6100bd61020d565b6040516100ca9190610810565b60405180910390f35b6100e66100e1366004610860565b610298565b60405190151581526020016100ca565b6100ff60035481565b6040519081526020016100ca565b6100e661011b366004610888565b6102ae565b60025461012d9060ff1681565b60405160ff90911681526020016100ca565b61015261014d366004610860565b61035a565b005b6100ff6101623660046108c2565b6001600160a01b03165f9081526005602052604090205490565b60045461018f906001600160a01b031681565b6040516001600160a01b0390911681526020016100ca565b6100bd610392565b6100e66101bd366004610860565b61039f565b6100ff6101d03660046108e2565b6001600160a01b039182165f90815260066020908152604080832093909416825291909152205490565b6101526102083660046108c2565b6103ab565b5f805461021990610913565b80601f016020809104026020016040519081016040528092919081815260200182805461024590610913565b80156102905780601f1061026757610100808354040283529160200191610290565b820191905f5260205f20905b81548152906001019060200180831161027357829003601f168201915b505050505081565b5f6102a433848461044d565b5060015b92915050565b6001600160a01b0383165f908152600660209081526040808320338452909152812054828110156103375760405162461bcd60e51b815260206004820152602860248201527f45524332303a207472616e7366657220616d6f756e74206578636565647320616044820152676c6c6f77616e636560c01b60648201526084015b60405180910390fd5b610344853385840361044d565b61034f858585610571565b506001949350505050565b6004546001600160a01b031633146103845760405162461bcd60e51b815260040161032e9061094b565b61038e828261070e565b5050565b6001805461021990610913565b5f6102a4338484610571565b6004546001600160a01b031633146103d55760405162461bcd60e51b815260040161032e9061094b565b6001600160a01b03811661042b5760405162461bcd60e51b815260206004820152601d60248201527f4e6577206f776e657220697320746865207a65726f2061646472657373000000604482015260640161032e565b600480546001600160a01b0319166001600160a01b0392909216919091179055565b6001600160a01b0383166104af5760405162461bcd60e51b8152602060048201526024808201527f45524332303a20617070726f76652066726f6d20746865207a65726f206164646044820152637265737360e01b606482015260840161032e565b6001600160a01b0382166105105760405162461bcd60e51b815260206004820152602260248201527f45524332303a20617070726f766520746f20746865207a65726f206164647265604482015261737360f01b606482015260840161032e565b6001600160a01b038381165f8181526006602090815260408083209487168084529482529182902085905590518481527f8c5be1e5ebec7d5bd14f71427d1e84f3dd0314c0f7b2291e5b200ac8c7c3b92591015b60405180910390a3505050565b6001600160a01b0383166105d55760405162461bcd60e51b815260206004820152602560248201527f45524332303a207472616e736665722066726f6d20746865207a65726f206164604482015264647265737360d81b606482015260840161032e565b6001600160a01b0382166106375760405162461bcd60e51b815260206004820152602360248201527f45524332303a207472616e7366657220746f20746865207a65726f206164647260448201526265737360e81b606482015260840161032e565b6001600160a01b0383165f908152600560205260409020548111156106ad5760405162461bcd60e51b815260206004820152602660248201527f45524332303a207472616e7366657220616d6f756e7420657863656564732062604482015265616c616e636560d01b606482015260840161032e565b6001600160a01b038084165f81815260056020526040808220805486900390559285168082529083902080548501905591517fddf252ad1be2c89b69c2b068fc378daa952ba7f163c4a11628f55a4df523b3ef906105649085815260200190565b6001600160a01b0382166107645760405162461bcd60e51b815260206004820152601f60248201527f45524332303a206d696e7420746f20746865207a65726f206164647265737300604482015260640161032e565b8060035f828254610775919061098c565b90915550506001600160a01b0382165f818152600560209081526040808320805486019055518481527fddf252ad1be2c89b69c2b068fc378daa952ba7f163c4a11628f55a4df523b3ef910160405180910390a3816001600160a01b03167f0f6798a560793a54c3bcfe86a93cde1e73087d944c0ea20544137d41213968858260405161080491815260200190565b60405180910390a25050565b602081525f82518060208401528060208501604085015e5f604082850101526040601f19601f83011684010191505092915050565b80356001600160a01b038116811461085b575f5ffd5b919050565b5f5f60408385031215610871575f5ffd5b61087a83610845565b946020939093013593505050565b5f5f5f6060848603121561089a575f5ffd5b6108a384610845565b92506108b160208501610845565b929592945050506040919091013590565b5f602082840312156108d2575f5ffd5b6108db82610845565b9392505050565b5f5f604083850312156108f3575f5ffd5b6108fc83610845565b915061090a60208401610845565b90509250929050565b600181811c9082168061092757607f821691505b60208210810361094557634e487b7160e01b5f52602260045260245ffd5b50919050565b60208082526021908201527f4f6e6c79206f776e65722063616e2063616c6c20746869732066756e6374696f6040820152603760f91b606082015260800190565b808201808211156102a857634e487b7160e01b5f52601160045260245ffdfea2646970667358221220987123026bf6cad30f2201924f1eab88867dba8eb716e9adc230373f2c0e2f4864736f6c634300081c0033",
  "linkReferences": {},
  "deployedLinkReferences": {},
  "immutableReferences": {},
  "inputSourceName": "project/contracts/jobTwo/SimpleERC20.sol",
  "buildInfoId": "solc-0_8_28-6f02408b5849f4e96153bd7c214b3cb028be3f44"
}